:100000000C94CE030C94F6030C94F6030C94F603B4
:100010000C94F6030C94F6030C94F6030C94F6037C
:100020000C94F6030C94F6030C9422090C94910999
:100030000C94F6030C94F6030C94F6030C94F6035C
:100040000C94F6030C94F6030C94F6030C94F6034C
:100050000C94F6030C94F6030C94F6030C94C30B67
:100060000C94F6030C94F6030C94F6030C94F6032C
:100070000C94F6030C94F6030C94F6030C94F6031C
:100080000C94F6030C94F6030C94F6030C94F6030C
:100090000C94F6030C94F6030C94F6030C94F603FC
:1000A0000C94F6030C94F6030C94F6030000000085
:1000B000003E5B4F5B3E3E6B4F6B3E1C3E7C3E1CEE
:1000C000183C7E3C181C577D571C1C5E7F5E1C0034
:1000D000183C1800FFE7C3E7FF0018241800FFE7EB
:1000E000DBE7FF30483A060E2629792926407F05AE
:1000F0000507407F05253F5A3CE73C5A7F3E1C1CC4
:1001000008081C1C3E7F14227F22145F5F005F5F83
:1001100006097F017F006689956A6060606060946F
:10012000A2FFA29408047E040810207E2010080874
:100130002A1C08081C2A08081E101010100C1E0C7F
:100140001E0C30383E3830060E3E0E060000000011
:100150000000005F00000007000700147F147F14F8
:10016000242A7F2A1223130864623649562050003D
:1001700008070300001C2241000041221C002A1C29
:100180007F1C2A08083E0808008070300008080814
:100190000808000060600020100804023E51494534
:1001A0003E00427F400072494949462141494D3352
:1001B0001814127F1027454545393C4A49493141B9
:1001C000211109073649494936464949291E000087
:1001D00014000000403400000008142241141414DC
:1001E0001414004122140802015909063E415D59C8
:1001F0004E7C1211127C7F494949363E41414122D1
:100200007F4141413E7F494949417F090909013EFA
:10021000414151737F0808087F00417F4100204021
:10022000413F017F081422417F404040407F021C33
:10023000027F7F0408107F3E4141413E7F0909094A
:10024000063E4151215E7F09192946264949493216
:1002500003017F01033F4040403F1F2040201F3FDC
:100260004038403F63140814630304780403615961
:10027000494D43007F4141410204081020004141A3
:10028000417F04020102044040404040000307084F
:100290000020545478407F2844443838444444284B
:1002A000384444287F385454541800087E090218F2
:1002B000A4A49C787F0804047800447D400020407A
:1002C000403D007F1028440000417F40007C0478BE
:1002D00004787C080404783844444438FC18242406
:1002E0001818242418FC7C08040408485454542486
:1002F00004043F44243C4040207C1C2040201C3C03
:100300004030403C44281028444C9090907C4464F9
:10031000544C44000836410000007700000041368C
:10032000080002010204023C2623263C1EA1A16112
:10033000123A4040207A3854545559215555794144
:100340002154547841215554784020545579400C1B
:100350001E527212395555555939545454593955FC
:100360005454580000457C410002457D420001453F
:100370007C40F0292429F0F0282528F07C545545AC
:10038000002054547C547C0A097F4932494949323F
:100390003248484832324A4848303A4141217A3A54
:1003A00042402078009DA0A07D39444444393D401E
:1003B00040403D3C24FF2424487E4943662B2FFCCB
:1003C0002F2BFF0929F620C0887E09032054547979
:1003D000410000447D413048484A32384040227A4A
:1003E000007A0A0A727D0D19317D2629292F2826C7
:1003F0002929292630484D402038080808080808CF
:100400000808382F10C8ACBA2F102834FA00007B27
:10041000000008142A142222142A1408950022002D
:1004200095AA005500AAAA55AA55AA000000FF00E7
:10043000101010FF00141414FF001010FF00FF1024
:1004400010F010F0141414FC001414F700FF000056
:10045000FF00FF1414F404FC141417101F10101FD5
:10046000101F1414141F00101010F0000000001FC3
:10047000101010101F10101010F010000000FF10CE
:100480001010101010101010FF10000000FF1400CA
:1004900000FF00FF00001F10170000FC04F41414FC
:1004A0001710171414F404F40000FF00F7141414C8
:1004B00014141414F700F7141414171410101F1048
:1004C0001F141414F4141010F010F000001F101F6B
:1004D0000000001F14000000FC140000F010F010D9
:1004E00010FF10FF141414FF141010101F00000050
:1004F00000F010FFFFFFFFFFF0F0F0F0F0FFFFFF54
:100500000000000000FFFF0F0F0F0F0F38444438AA
:10051000447C2A2A3E147E02020606027E027E02E5
:1005200063554941633844443C04407E201E200604
:10053000027E020299A5E7A5991C2A492A1C4C7241
:1005400001724C304A4D4D303048784830BC625AC8
:10055000463D3E494949007E0101017E2A2A2A2A58
:100560002A44445F444440514A444040444A514034
:100570000000FF0103E080FF000008086B6B0836F5
:1005800012362436060F090F060000181800000066
:100590001010003040FF0101001F01011E00191D55
:1005A0001712003C3C3C3C0000000000F0F89C8E20
:1005B0008783878E9CF8F00000FEFF03030303038C
:1005C000070EFCF80000FEFF0303030303070EFC05
:1005D000F80000FFFF00000000000000FFFF000027
:1005E000FEFF8383838383C7EE7C380000F8FC0E14
:1005F00007030303070EFCF800003F7FE0C0808084
:10060000C0E07F3FFFFF01010101010101FFFF0089
:1006100000FFFF0C0C0C0C1C3E77E3C100007FFFB9
:10062000C0C0C0C0C0E0703F1F00001F3F70E0C0EE
:10063000C0C0E0703F1F00007FFFC1C1C1C1C1E366
:10064000773E1C00001F3F70E0C0C0C0E0703F1F3D
:10065000000000000001FFFF01000000D5F08D1434
:10066000A1C881CFD9F1AF2000080849496B6B7F41
:100670007F6B7F223E363E1C1C0808164000FE623F
:10068000626202FA2A2A0A0202FE0000000000004A
:1006900000000000FF00000000010000000000FF5B
:1006A00000000000000000000000FF00000000004B
:1006B0000000000000FF000000000000000000003B
:1006C000FF00000000000000000000FF000000002C
:1006D000000000000000FF0000000000000000001B
:1006E00000FF00000000000000000000FF0000000C
:1006F00000000000000000FF0000000000000000FB
:100700000000FF00000000808080800000FF0000EB
:1007100000000000000000007F464646405F525245
:100720005040407F000000000000000000080B0067
:100730000202020000090400000102020000052478
:10074000001001052401010104240206052406000D
:10075000010705810310004009040100020A00009E
:100760000007050202400000070583024000000464
:1007700003090412010002EF020140412336800008
:10078000010102030141726475696E6F204C4C4394
:100790000041726475626F790000400C11241FBE25
:1007A000CFEFDAE0DEBFCDBF11E0A0E0B1E0E4E0E2
:1007B000F3E202C005900D92AC33B107D9F727E000
:1007C000ACE3B1E001C01D92A93CB207E1F713E030
:1007D000CEECD3E004C02197FE010E947A11CD3CFB
:1007E000D107C9F70E94780C0C9480110C9400007A
:1007F000E6E6F1E0A0E0B8E000800EBC8111012C3B
:100800001197A0FDFDCF0192B9F70DB40895FC0139
:1008100080916501882311F13FB7F89482E08093BD
:10082000E9002091F200822F90E01816190614F4C6
:1008300081E090E0882339F0289844E640936401F1
:100840004091F1004083222339F02091F2002111E0
:1008500003C02BE62093E8003FBF08958FEF9FEF82
:1008600008952FB7F89483E08093E9009091E80011
:10087000892F807295FF04C09091F20080E4891B5B
:100880002FBF089580915C0181110DC082E080939B
:10089000580184E08093590110925B0110925A0133
:1008A00081E080935C0188E591E00895CF93DF9328
:1008B0001F92CDB7DEB76983DC01ED91FC91028018
:1008C000F381E02D41E050E0BE016F5F7F4F09955D
:1008D0000F90DF91CF91089583E08093E90080919C
:1008E000F200882319F08AE38093E80008950E94BB
:1008F000310490E00895CF93DF931F92CDB7DEB718
:10090000FC018485958597FD08C02FEF3FEF358763
:1009100024870F90DF91CF910895CE0101960E9418
:100920000704019719F4898190E0F3CF8FEF9FEFCF
:10093000F0CF0F931F93CF93DF931F92CDB7DEB706
:100940008C01FC018485958597FF0BC0CE01019633
:100950000E940704019771F4898190E0F80195875E
:100960008487F801848595850F90DF91CF911F9141
:100970000F9108958FEF9FEFF1CFFC01848595854E
:1009800097FD0BC09FB7F89482E08093E9008091B7
:10099000F2009FBF90E0019608959FB7F89482E01F
:1009A0008093E9008091F2009FBF90E0089540910C
:1009B0005201509153012091500130915101421741
:1009C0005307B4F49091E8009570E1F39091E8003A
:1009D00092FD19C08093F1008091520190915301D2
:1009E00001968F739927892B19F48EEF8093E80075
:1009F00080915201909153010196909353018093FD
:100A0000520181E0089580E00895DF92EF92FF9215
:100A10000F931F93CF93DF93D82E8A01EB017B01B5
:100A2000E40EF51ECE15DF0559F0D7FE12C0FE010B
:100A300084910E94D70421968111F4CF0FEF1FEF0C
:100A4000C801DF91CF911F910F91FF90EF90DF9040
:100A500008958881EECF0F931F93CF93DF931F925A
:100A6000CDB7DEB782E0898342E450E06DE277E003
:100A700080E80E9405050E944204DC0112960D9157
:100A80001C910115110589F0D801ED91FC910280AE
:100A9000F381E02DBE016F5F7F4FC801099597FD7F
:100AA00004C0F80100851185ECCF89810F90DF919A
:100AB000CF911F910F910895615030F02091F10076
:100AC000FC0120830196F8CF289884E68093640186
:100AD0000895FC010E940006319728F068517C4F70
:100AE0008F4F9F4FF9CFAB01FC010E9400066417A6
:100AF00075078E079F07C8F308958F929F92AF9254
:100B0000BF92CF92DF92EF92FF920F931F93CF93FA
:100B1000DF936C017B018A0180910C01882309F429
:100B20005AC080916501882309F455C0809157010E
:100B300080FF05C08091E00082608093E000E801C2
:100B4000B12C8AEFA82E93E0892E2AE3922E2097CB
:100B500011F4BB20C9F10E943104811108C0AA948C
:100B6000AA20C9F181E090E00E946905F0CF8C17BE
:100B70001D0611F00CF08C2F9FB7F8948092E900BD
:100B80002091E80025FD02C09FBFE1CF282F30E073
:100B9000C21BD30BF701815020F041914093F1002B
:100BA000FACFE20EF31EBB2021F09092E800B12CA8
:100BB000EBCF8091E80085FDE7CF9092E800BB2461
:100BC000B394209709F3F3CF5D9884E680935601A0
:100BD000101611063CF081E090E0F60193838283C9
:100BE00010E000E0C801DF91CF911F910F91FF90BD
:100BF000EF90DF90CF90BF90AF909F908F9008952F
:100C0000ACE4B1E02FB7F8947D918D919C9166B5DD
:100C10002FBFA89B05C06F3F18F47F5F8F4F9F4F7A
:100C200022E0660F771F881F991F2A95D1F7089534
:100C3000AF92BF92CF92DF92EF92FF920F931F93EA
:100C4000CF93DF936C017B018B01040F151FEB0128
:100C50005E01AE18BF08C017D10759F06991D601DF
:100C6000ED91FC910190F081E02DC6010995892B51
:100C700079F7C501DF91CF911F910F91FF90EF9010
:100C8000DF90CF90BF90AF9008954F925F926F9298
:100C90007F928F929F92AF92BF92CF92DF92EF920C
:100CA000FF920F931F93CF93DF934C015901FC2DBB
:100CB000C02FD0E0CE01880D991D181619060CF032
:100CC00067C09B012E0D311D121613060CF060C07B
:100CD000603471050CF05CC04115510509F458C031
:100CE000262F2770F22EDB0177FD179633E0B5959E
:100CF000A7953A95E1F73A2F77FF04C0FF2011F04E
:100D00003FEF3A0F662777276819790997FC02C0E9
:100D100070E060E0803891050CF44BC090E89819C1
:100D2000961BA32F032E000CBB0B1A2F10953F3FD1
:100D30000CF010E021E08E2D877009F420E0E6949D
:100D4000E694E694E20EAE0DB11D19971CF028E072
:100D5000E22EE31AE11A310F20E83203D001112408
:100D6000A80DB91DA60FB71F019F600D711D11249D
:100D7000460F571F0F2D0F2C000C110BF33009F4E9
:100D80001CC1C8F4F13009F4D0C0F23009F47CC0C1
:100D9000DF91CF911F910F91FF90EF90DF90CF9057
:100DA000BF90AF909F908F907F906F905F904F908B
:100DB0000895902FB5CFFA3FB1F1232F2E0DFB3FB1
:100DC00039F7321729F3BD016A597E4FD12CC12C56
:100DD000C91608F0A4C0FA01EC0DFD1DE491F0E085
:100DE0004F01002E02C0880C991C0A94E2F737FDCF
:100DF00006C0FB018081E82CE0948E218083FF20D7
:100E000061F0373054F45B01F0E8AF0EB11CE92C0F
:100E1000E094F50180818E218083FFEFCF1ADF0AF5
:100E20006F5F7F4FD5CF232F2E0D321709F4B0CF30
:100E3000BD016A597E4FD12CC12CC91608F069C07A
:100E4000FA01EC0DFD1DE491F0E04F01002E02C00F
:100E5000880C991C0A94E2F737FD04C0FB018081DD
:100E600088298083FF2051F0373044F45B01F0E89B
:100E7000AF0EB11CF501808189298083FFEFCF1A65
:100E8000DF0A6F5F7F4FD9CF6FEF70E00F2C02C08A
:100E9000660F771F0A94E2F760957095772E232FDF
:100EA0002E0D321709F474CFFD01EA59FE4F6F0180
:100EB000B12CA12CA91638F5FA01EA0DFB1DE4911D
:100EC000F0E02F01002E02C0440C551C0A94E2F7FA
:100ED00037FD05C0F6018081862384298083FF20A9
:100EE00059F037304CF44601F0E88F0E911CF401B4
:100EF0008081872185298083FFEFAF1ABF0A8FEF9A
:100F0000C81AD80AD7CF3F5F4C0F5D1FA058BF4FFC
:100F1000C8CF3F5F4C0F5D1FA058BF4F86CF3F5FCC
:100F20004C0F5D1FA058BF4F4CCF6A0D7B1D232F68
:100F30002E0D321709F42CCFFD01EA59FE4F6F0137
:100F4000B12CA12CA91688F5FB01EA0DFB1D84909C
:100F5000912C002E02C0880C991C0A94E2F7809410
:100F60009094FA01EA0DFB1D6490712C002E02C0D2
:100F7000660C771C0A94E2F737FD05C0F601808104
:100F8000882186298083FF2049F037303CF4F60120
:100F9000E058FF4F8081892187298083FFEFAF1AB6
:100FA000BF0A8FEFC81AD80ACDCF3F5F4C0F5D1F25
:100FB0006C0F7D1FA058BF4FBCCFC92ED12CFA019A
:100FC000E60FF71FAA59BE4F00E810E00C191D09E3
:100FD000CC19DD09BE01660F771F41E050E06A01C0
:100FE0000F2C01C0CC0C0A94EAF7592F2E2D792E24
:100FF000CF93DF93ED01EF96EF9622968590A59023
:10100000FF2059F08C9C4001AC9C500137302CF4EF
:10101000E880B094EB20E928E99233233AF0EC9091
:10102000A094EA20E828ED920C94170811965A959E
:1010300029F72A9551F0572D33951124E60FF11D0C
:10104000A00FB11DC00FD11DD9CFDF91CF911124B9
:101050009FCE90E00C9469058FB18095807F669B50
:1010600088601C9B846008956F927F928F929F92FC
:10107000AF92BF92CF92DF92EF92FF920F931F93A6
:10108000CF93DF9300D01F92CDB7DEB76D3089F0DC
:10109000A0904301B09044016A30F9F410924201EB
:1010A000109241019501285F3F4F309344012093F6
:1010B000430181E090E00F900F900F90DF91CF916E
:1010C0001F910F91FF90EF90DF90CF90BF90AF9066
:1010D0009F908F907F906F900895009141011091A3
:1010E000420135E0639FF0011124E455FF4FA80150
:1010F000712C80E1682E98E0D92EDA0C75E060E062
:10110000771621F0CF0101966491FC01C5014038AA
:101110005105D0F480349105B8F4A62FA170CA2EE1
:101120009C0171E021FD74E020FD770F22FD729596
:10113000287F629ED0011124A40FAA59BE4F0C90A3
:10114000072AC0FE07260C9266950196D812DFCFBB
:1011500073944F5F5F4F86E07812D0CF0A5F1F4FC6
:101160001093420100934101A4CFCF93C82F0E9456
:101170002C08982F9C2381E09C1380E0CF91089548
:1011800080E00C94F803089590E080E00895FB015E
:1011900001900020E9F73197AF01461B570BDC01A6
:1011A000ED91FC910280F381E02D09948F929F9242
:1011B000AF92BF92EF92FF920F931F93CF93DF9363
:1011C000CDB7DEB7A1970FB6F894DEBF0FBECDBF87
:1011D0007C01FA01CB0119A2223008F42AE08E0129
:1011E0000F5D1F4F822E912CB12CA12CBF01A501A8
:1011F00094010E942111F901CA016A300CF5605D69
:10120000D8016E938D01232B242B252B79F790E0A9
:1012100080E0109721F0BD01C7010E94C708A19688
:101220000FB6F894DEBF0FBECDBFDF91CF911F91F7
:101230000F91FF90EF90BF90AF909F908F90089587
:10124000695CDECF1F920F920FB60F9211248F931D
:101250009F938091E1009091E100937F9093E10052
:1012600083FF0FC01092E90091E09093EB00109281
:10127000EC0092E39093ED001092650198E090935A
:10128000F00082FF22C093E09093E9009091F20079
:10129000992319F09AE39093E800909156019923CD
:1012A00041F090915601915090935601911101C0D7
:1012B0005D9A90916401992341F09091640191505D
:1012C00090936401911101C0289A84FF18C0809105
:1012D000E2008E7E81608093E2008091E1008F7E4B
:1012E0008093E100809157018E7E80618093570149
:1012F0009F918F910F900FBE0F901F90189580FFB8
:10130000F7CF8091E2008E7E80618093E200809131
:10131000E1008E7E8093E100809157018E7E816096
:10132000E5CF1F920F920FB60F921124CF92DF924A
:10133000EF92FF920F931F932F933F934F935F93DF
:101340006F937F938F939F93AF93BF93EF93FF938D
:10135000CF93DF93CDB7DEB76C97DEBFCDBF1092D2
:10136000E9008091E80083FF25C068E0CE01459642
:101370000E945C0582EF8093E8008D8987FF39C069
:101380009091E80090FFFCCF982F907609F034C13F
:101390009E894F89588D2F89F88C911131C08038E2
:1013A00061F5809155018093F1001092F1008EEF6C
:1013B0008093E8006C960FB6F894DEBF0FBECDBFE9
:1013C000DF91CF91FF91EF91BF91AF919F918F915D
:1013D0007F916F915F914F913F912F911F910F914D
:1013E000FF90EF90DF90CF900F900FBE0F901F9067
:1013F00018959EEF9093E800C7CF1092F100D5CFDB
:10140000913059F48111D3CF4130510581F680914B
:1014100055018D7F80935501CACF933049F48111D6
:10142000C6CF4130510519F6809155018260F2CF47
:10143000953041F48091E80080FFFCCF2068209334
:10144000E300B5CF963009F0A9C00B8D1C8D22E0CA
:101450001092E9001092530110925201F2122EC024
:1014600010925101109250010E942B051F8299E0A9
:101470009983FA8291E09E8390EA98879AEF998700
:101480002091520130915301275F3F4F3C832B83C2
:101490008D831092E9001092530110925201109323
:1014A00051010093500149E050E0BE016F5F7F4F52
:1014B00080E00E9405050E942B0579CF1093510111
:1014C000009350010E944204DC0112960D911C9180
:1014D0000115110509F451C1D801ED91FC91048069
:1014E000F581E02DBE016B5E7F4FC8010995009725
:1014F00009F03EC1F80100851185EACFF3E0FF1243
:101500000EC08F89882309F440C0823061F440E81E
:1015100067E081E997E00E940D0C811148CF81E2DC
:101520008093EB0047CF813029F440E86BE085E8F9
:1015300097E0F1CF833099F70E944204DC011296C4
:10154000ED90FC908E010F5F1F4F6801E114F104D4
:1015500079F0D701ED91FC910680F781E02DB8017B
:10156000C7010995080F111DF701E084F184EECF42
:10157000D8011C92F60101900020E9F73197BF01D4
:101580006C197D0940E0C601C6CF6FE677E0FB012C
:10159000449150E080E80E94050509CF973009F496
:1015A000BECF983021F481E08093F10000CF9930D4
:1015B00009F0FDCE837009F0B2CFE2E1F1E081E005
:1015C00031E096E32191222371F08093E90030937A
:1015D000EB00DF0111972C912093EC009093ED002C
:1015E0008F5F873079F78EE78093EA001092EA00E8
:1015F0008F8980936501DBCE8B8D9C8D1092E900E5
:101600001092530110925201909351018093500116
:10161000898D811192C08E899D89913A49F48132D8
:1016200009F07DCF47E050E065E071E080E0B3CFA6
:10163000913209F074CF833269F48F89988DB0E0CC
:10164000A0E08093010190930201A0930301B09365
:101650000401ADCE803269F48091E80082FFFCCFB6
:1016600067E085E091E00E945C058BEF8093E800E5
:101670009ECE823209F09BCE8F8980930C01EEEFD3
:10168000FFE7859194918B3F9C4D51F1E0E0F8E0AC
:101690008091050190910601A0910701B091080188
:1016A000803B9440A105B105F1F480910C0180FDCF
:1016B0001AC0EE3F8AE0F80789F587E797E791833C
:1016C0008083809160008093540188E19BE00FB695
:1016D000F894A895809360000FBE9093600067CE49
:1016E000EEEFFAE0D5CF808191818737974709F0F7
:1016F0005ECEA895809160008861809360008091A3
:10170000540180936000EE3F2AE0F20789F0809157
:10171000FE0A9091FF0A9183808349CE8081918156
:101720008737980751F29093FF0A8093FE0AC5CF3E
:101730001092FF0A1092FE0A3ACE0E944204DC0187
:1017400012960D911C910115110509F4E8CED801EE
:10175000ED91FC910190F081E02DBE016B5E7F4F19
:10176000C8010995811123CEF80100851185EBCFC1
:10177000181619060CF41BCED2CEF1E0FF12BECE25
:1017800063E777E004CF0F920FB68F939F93EF93A9
:10179000FF93809147018D5F8D3708F08D578093BF
:1017A0004701E8E4F1E080818E4F808391819F4F73
:1017B000918382818F4F828383818F4F8383ECE477
:1017C000F1E080818F5F808381818F4F818382816F
:1017D0008F4F828383818F4F83838FB18F60669910
:1017E0001C9B88278F3681F480914601981B963088
:1017F00068F0E0E0F8E087E78083818388E1809308
:101800006000F0936000FFCF90934601FF91EF914D
:101810009F918F910FBE0F901895EF92FF920F93AB
:101820001F93CF93DF93F82E192FE62E042F81E01C
:10183000860F880F0E94D70483E00E94D704CF2D23
:10184000D12FEC0EFD2EF11CCE15DF05B9F007FFF0
:1018500013C0FE0184910E94D704182F80E00E94DB
:10186000D704812321968111EFCFDF91CF911F9172
:101870000F91FF90EF9008958881EDCF81E0F5CF33
:10188000E6E6F5E01382128288EE93E0A0E0B0E095
:1018900084839583A683B7838CE191E091838083D1
:1018A0008FEF9FEF95878487A5ECB7E013961C9286
:1018B0001E9212978EE291E011969C938E93E8EB24
:1018C000F7E0B183A08383E082838CE18383148279
:1018D000B683A5838AEE8783808713861486B093A8
:1018E000B705A093B6051092B6071092B7070895F2
:1018F000CDB7DEB72697DEBFCDBF789483E084BD39
:1019000083E085BD81E080936E00E1E8F0E083E054
:101910008083E0E881E08083E1E983E08083E0E99F
:1019200081E08083E1EC87E08083E3EC81E08083E9
:10193000E0EC82E08083E2EC81E08083EAE787E00C
:101940008083806880831092650110925501109207
:1019500057018091D70081608093D70080EA8093FF
:10196000D80089B5806189BD89B5826089BD09B417
:1019700000FEFDCF81E090E00E9469058091D800D3
:101980008F7C80618093D8008091E000807F80937D
:10199000E0008091E1008E7E8093E1008DE08093F5
:1019A000E200559A209A81EC80937C0081EF85B902
:1019B00087EE84B984E38BB984EF8AB9769A6E98FE
:1019C00080EF81BB10BA80E58CBD81E08DBD85E0E4
:1019D0000E9429085F9A85E00E9429085C98ECE53E
:1019E000F6E085918EBD00000DB407FEFDCFE9360F
:1019F000C1F75C9A81E88093640081E08093650080
:101A00000E94C00880E80E94B5088823A9F05C986D
:101A100085EA8EBD00000DB407FEFDCF5C9A2E98BE
:101A20002F982D988091640080628093640081E0FB
:101A300083BF889513BEFCCF84E00E94B50888233D
:101A4000B9F12D9884E80E94B5088823A1F02D9A59
:101A500088EC0E9429082F986FEF82E090E00E94A6
:101A6000DD1084EF91E00E9469052F9A84E80E94BE
:101A7000B5088111FBCF84E10E94B5088823A1F04D
:101A80002D9A88EC0E9429082E9860E082E090E070
:101A90000E94DD1084EF91E00E9469052E9A84E196
:101AA0000E94B5088111FBCF88EC0E942908C4CFA1
:101AB0002D9A82E090E00E94D510882309F4B3C0EB
:101AC0003E9A3F9A81E090E00E94D510082F047062
:101AD000F02E81FF0EC001112E9851EF852E992412
:101AE0009A9480E40E94B508882309F49FC02E9A36
:101AF0002F9A82E30E9429080E942C088111F9CFB5
:101B000080E180930001809164008E7F8093640067
:101B100080917A00806480937A0080917A0086FDBB
:101B2000FCCF00917800109179000E940006AB0173
:101B3000BC01C801B0E0A0E0DC01992788278C0136
:101B40009D01040F151F261F371FC901B8012091E1
:101B50006400216020936400611571058105910581
:101B600011F00E94CC1006EB15E01E830D83A6E059
:101B70004A2E512C612C712CB5E08B2E912CA12C6E
:101B8000B12C0E947D106B017C010E947D10698345
:101B90007A838B839C83C701B601A30192010E94C3
:101BA000EF10ED81FE81628369817A818B819C8156
:101BB000A50194010E94EF106B5C7F4F8F4F9F4FE8
:101BC000ED81FE8163833296FE83ED83E45BF74013
:101BD000C1F66CE3462E61E0562E76E6672E71E084
:101BE000772EAA24AA94B12CFAE58F2E912C1FEF00
:101BF0005BE7252E56E0352E9091480180913F01FC
:101C0000292F281B822F00913E01002309F4B0C028
:101C10002093400110923E0180E090E0892B61F317
:101C20000E940000E4CF3E983F984CCFFF2031F057
:101C300014E08116910411F42E9A2F9881E00E94ED
:101C4000F803282D2770B22E940103E035952795CF
:101C50000A95E1F7C9019695982F8827979587955A
:101C60008A599E4F70E060E02E3F4FEF340751F1EC
:101C7000DC01AC56BF4F8C0150E040E0FB01E45565
:101C8000FA4F6F01F601E40FF51FE491F0E03F0118
:101C90000B2C02C0660C771C0A94E2F72F3F320728
:101CA00021F0F801E488E628E48ABB2019F0EC91E1
:101CB000E729EC934F5F5F4F11960F5F1F4F483539
:101CC000510501F72F5F3F4F80589F4F685A7F4F54
:101CD000603B710549F60E94C0088FE00E94290808
:101CE000FFEF8F1A9F0A09E18016910409F0F9CEDF
:101CF000FF2011F02F9A2D9880E991E00E9469054C
:101D00002D9A81E090E00E94D51080FFF2CE8AE00B
:101D100090E00E94D5109FEF980F9E3F08F0E9CE0B
:101D200022E330E0309342012093410128E330E088
:101D300030934401209343010AE010E01A830983A1
:101D4000682F85EC97E00E94340809811A810F5FA3
:101D50001F4F1A830983C8010E94D5100031110555
:101D600079F70E94C00888EE93E00E946905C1CE11
:101D700020910001821748F48F5F821708F04CCF42
:101D800081E083BF889513BE47CF81E080933E01F9
:101D900090933F01F201808191810196808391832C
:101DA0000E942C0880934501F30101110FEF8FEF82
:101DB00001930193019301938150D0F71092440154
:101DC00010924301109242011092410188E00E945A
:101DD000B508882349F18091B7078F5F8093B707D3
:101DE00080E80E94B508882329F08091BB078150C4
:101DF0008093BB0780E10E94B508882329F0809179
:101E0000BB078F5F8093BB07E6E6F1E091E8915056
:101E100089F4E6EEF4E091E8915091F08191DF01D0
:101E2000119780688C93F8CF84E00E94B5088111E7
:101E3000D2CFD6CF8191DF01119781608C93E7CF0C
:101E4000A6EBB5E030E020E012968C911297139645
:101E50000C911397080FE82FE695E695E6959FEF0E
:101E60009E0F87709F3FB1F0F12C692F092E000C57
:101E7000770BEF2DF0E06E177F0764F0F695FE2FDD
:101E8000EE27F795E795E20FF31FEA59FE4F10830F
:101E9000F394EFCF8823C1F0E92F990FFF0B319610
:101EA000F695FE2FEE27F795E795E20FF31FEA5917
:101EB000FE4F48E050E0481B5109B50102C075953E
:101EC00067954A95E2F76083F02EF694F694F694BF
:101ED00007708F2D90E0BC017695762F6627779559
:101EE0006795620F731F50E040E0EF2DE40FE8307C
:101EF00070F4FA01F695FE2FEE27F795E795E60FB9
:101F0000F71FEA59FE4F10834F5F5F4FEECF00235C
:101F1000B9F048E050E0401B5109F50102C0F595C9
:101F2000E7954A95E2F7AF01FC01F695FE2FEE2703
:101F3000F795E795E20FF31FEA59FE4F409540836E
:101F40002F5F3F4F12962F37310509F07DCF9092CA
:101F50004201809241011092440110924301E090AD
:101F6000B605F090B7054091B70750E070E060E02B
:101F70002AE0C7010E94D60866E371E0C7010E940B
:101F8000C7082091BC076091BB07062E000C770B99
:101F90008091BA07082E000C990BE9E6F6E004914F
:101FA000EAE6F6E0E4904BE656E02223F1F041E069
:101FB00050E03E2D377011F450E040E03E2D369554
:101FC00036953695430F511D049FF001059FF00D86
:101FD000112430E0220F331FE29FA001E39F500D38
:101FE000F29F500D11244559594F23E0C22E30E085
:101FF00020E00E944506F1010491ECE7F6E0E49050
:1020000032E0C32E30E020E04DE756E070E060E0C3
:102010008AE690E00E94450610924201109241012A
:10202000109244011092430180914001F4E68F9F89
:10203000C00111246091000170E00E945211AB01B7
:10204000770F660B770B2AE085EC97E00E94D608A5
:1020500069E371E085EC97E00E94C7080E94C00820
:10206000DBCD8F929F92AF92BF92CF92DF92EF9291
:10207000FF92CF93DF93EC01688179818A819B8104
:10208000611571058105910521F464E279ED8BE517
:1020900097E02DE133EF41E050E00E94EF1049015D
:1020A0005A019B01AC01A7EAB1E40E940E116B0139
:1020B0007C01ACEEB4EFA50194010E941C11C60E88
:1020C000D71EE81EF91EF7FE06C081E0C81AD10827
:1020D000E10880E8F80AC882D982EA82FB82C70157
:1020E000B6019F77DF91CF91FF90EF90DF90CF9077
:1020F000BF90AF909F908F9008958F929F92AF92D4
:10210000BF92CF92DF92EF92FF9260910D0170919A
:102110000E0180910F0190911001611571058105EB
:10212000910521F464E279ED8BE597E02DE133EF41
:1021300041E050E00E94EF1049015A019B01AC01BF
:10214000A7EAB1E40E940E116B017C01ACEEB4EF82
:10215000A50194010E941C11C60ED71EE81EF91E8F
:10216000F7FE06C081E0C81AD108E10880E8F80A45
:10217000C0920D01D0920E01E0920F01F092100179
:10218000C701B6019F77FF90EF90DF90CF90BF908F
:10219000AF909F908F90089560930D0170930E0102
:1021A00080930F01909310010895F999FECF92BD8D
:1021B00081BDF89A992780B50895262FF999FECF09
:1021C00092BD81BDF89A019700B4021639F01FBA8A
:1021D00020BD0FB6F894FA9AF99A0FBE0895052E0D
:1021E00097FB1EF400940E94061157FD07D00E9431
:1021F000211107FC03D04EF40C9406115095409524
:10220000309521953F4F4F4F5F4F089590958095A2
:10221000709561957F4F8F4F9F4F08950E94431196
:10222000A59F900DB49F900DA49F800D911D11242A
:102230000895B7FF0C940E110E940E11821B930B90
:102240000895A1E21A2EAA1BBB1BFD010DC0AA1FF7
:10225000BB1FEE1FFF1FA217B307E407F50720F00F
:10226000A21BB30BE40BF50B661F771F881F991F8A
:102270001A9469F760957095809590959B01AC01D3
:10228000BD01CF010895A29FB001B39FC001A39FDC
:10229000700D811D1124911DB29F700D811D11249F
:1022A000911D089597FB072E16F4009407D077FD33
:1022B00009D00E94661107FC05D03EF490958195E7
:1022C0009F4F0895709561957F4F0895AA1BBB1B82
:1022D00051E107C0AA1FBB1FA617B70710F0A61B26
:1022E000B70B881F991F5A95A9F780959095BC0147
:1022F000CD010895EE0FFF1F0590F491E02D099494
:04230000F894FFCF7F
:1023040010FFFFFFFF00E1000000000000010000DB
:102314000000C180810000000000000056047D051B
:1023240077046C04BD047B049904000000003408A5
:0C2334001806C408C3080D0A00250000AC
:00000001FF
