:100000000C94D4040C94FC040C94FC040C94FC0498
:100010000C94FC040C94FC040C94FC040C94FC0460
:100020000C94FC040C94FC040C94680A0C94D70AFD
:100030000C94FC040C94FC040C94FC040C94FC0440
:100040000C94FC040C94FC040C94FC040C94FC0430
:100050000C94FC040C94FC040C94FC040C94090D0A
:100060000C94FC040C94FC040C94FC040C94FC0410
:100070000C94FC040C94FC040C94FC040C94FC0400
:100080000C94FC040C94FC040C94FC040C94FC04F0
:100090000C94FC040C94FC040C94FC040C94FC04E0
:1000A0000C94FC040C94FC040C94FC040000000070
:1000B000003E5B4F5B3E3E6B4F6B3E1C3E7C3E1CEE
:1000C000183C7E3C181C577D571C1C5E7F5E1C0034
:1000D000183C1800FFE7C3E7FF0018241800FFE7EB
:1000E000DBE7FF30483A060E2629792926407F05AE
:1000F0000507407F05253F5A3CE73C5A7F3E1C1CC4
:1001000008081C1C3E7F14227F22145F5F005F5F83
:1001100006097F017F006689956A6060606060946F
:10012000A2FFA29408047E040810207E2010080874
:100130002A1C08081C2A08081E101010100C1E0C7F
:100140001E0C30383E3830060E3E0E060000000011
:100150000000005F00000007000700147F147F14F8
:10016000242A7F2A1223130864623649562050003D
:1001700008070300001C2241000041221C002A1C29
:100180007F1C2A08083E0808008070300008080814
:100190000808000060600020100804023E51494534
:1001A0003E00427F400072494949462141494D3352
:1001B0001814127F1027454545393C4A49493141B9
:1001C000211109073649494936464949291E000087
:1001D00014000000403400000008142241141414DC
:1001E0001414004122140802015909063E415D59C8
:1001F0004E7C1211127C7F494949363E41414122D1
:100200007F4141413E7F494949417F090909013EFA
:10021000414151737F0808087F00417F4100204021
:10022000413F017F081422417F404040407F021C33
:10023000027F7F0408107F3E4141413E7F0909094A
:10024000063E4151215E7F09192946264949493216
:1002500003017F01033F4040403F1F2040201F3FDC
:100260004038403F63140814630304780403615961
:10027000494D43007F4141410204081020004141A3
:10028000417F04020102044040404040000307084F
:100290000020545478407F2844443838444444284B
:1002A000384444287F385454541800087E090218F2
:1002B000A4A49C787F0804047800447D400020407A
:1002C000403D007F1028440000417F40007C0478BE
:1002D00004787C080404783844444438FC18242406
:1002E0001818242418FC7C08040408485454542486
:1002F00004043F44243C4040207C1C2040201C3C03
:100300004030403C44281028444C9090907C4464F9
:10031000544C44000836410000007700000041368C
:10032000080002010204023C2623263C1EA1A16112
:10033000123A4040207A3854545559215555794144
:100340002154547841215554784020545579400C1B
:100350001E527212395555555939545454593955FC
:100360005454580000457C410002457D420001453F
:100370007C40F0292429F0F0282528F07C545545AC
:10038000002054547C547C0A097F4932494949323F
:100390003248484832324A4848303A4141217A3A54
:1003A00042402078009DA0A07D39444444393D401E
:1003B00040403D3C24FF2424487E4943662B2FFCCB
:1003C0002F2BFF0929F620C0887E09032054547979
:1003D000410000447D413048484A32384040227A4A
:1003E000007A0A0A727D0D19317D2629292F2826C7
:1003F0002929292630484D402038080808080808CF
:100400000808382F10C8ACBA2F102834FA00007B27
:10041000000008142A142222142A1408950022002D
:1004200095AA005500AAAA55AA55AA000000FF00E7
:10043000101010FF00141414FF001010FF00FF1024
:1004400010F010F0141414FC001414F700FF000056
:10045000FF00FF1414F404FC141417101F10101FD5
:10046000101F1414141F00101010F0000000001FC3
:10047000101010101F10101010F010000000FF10CE
:100480001010101010101010FF10000000FF1400CA
:1004900000FF00FF00001F10170000FC04F41414FC
:1004A0001710171414F404F40000FF00F7141414C8
:1004B00014141414F700F7141414171410101F1048
:1004C0001F141414F4141010F010F000001F101F6B
:1004D0000000001F14000000FC140000F010F010D9
:1004E00010FF10FF141414FF141010101F00000050
:1004F00000F010FFFFFFFFFFF0F0F0F0F0FFFFFF54
:100500000000000000FFFF0F0F0F0F0F38444438AA
:10051000447C2A2A3E147E02020606027E027E02E5
:1005200063554941633844443C04407E201E200604
:10053000027E020299A5E7A5991C2A492A1C4C7241
:1005400001724C304A4D4D303048784830BC625AC8
:10055000463D3E494949007E0101017E2A2A2A2A58
:100560002A44445F444440514A444040444A514034
:100570000000FF0103E080FF000008086B6B0836F5
:1005800012362436060F090F060000181800000066
:100590001010003040FF0101001F01011E00191D55
:1005A0001712003C3C3C3C0000000000F0F89C8E20
:1005B0008783878E9CF8F00000FEFF03030303038C
:1005C000070EFCF80000FEFF0303030303070EFC05
:1005D000F80000FFFF00000000000000FFFF000027
:1005E000FEFF8383838383C7EE7C380000F8FC0E14
:1005F00007030303070EFCF800003F7FE0C0808084
:10060000C0E07F3FFFFF01010101010101FFFF0089
:1006100000FFFF0C0C0C0C1C3E77E3C100007FFFB9
:10062000C0C0C0C0C0E0703F1F00001F3F70E0C0EE
:10063000C0C0E0703F1F00007FFFC1C1C1C1C1E366
:10064000773E1C00001F3F70E0C0C0C0E0703F1F3D
:10065000000000000001FFFF01000000D5F08D1434
:10066000A1C881CFD9F1AF2000080849496B6B7F41
:100670007F6B7F223E363E1C1C08080708117F5EF8
:100680007F3A7F6E7F3A7F5E7F117F1640000000C9
:1006900000000000000000FF00CECECEFE82EAEA9D
:1006A000FAFE0000000000000000000000FF00FF54
:1006B000FFFFFFFFFFFFFFFF000000000000000042
:1006C000000000FF00FFFFFFFFFFFFFFFFFF000034
:1006D000000000000000000000FF00FFFFFFFFFF20
:1006E000FFFFFFFF0000000000000000000000FF0F
:1006F00000FFFFFFFFFFFFFFFFFF00000000000003
:100700000000000000FF00FFFFFFFFFFFFFFFFFFF3
:100710000000000000000000000000FF00FFFFFFDD
:10072000FFFFFFFFFFFF00000000000000000000CF
:1007300000FF007373737F4155555D7F00080B0008
:100740000202020000090400000102020000052468
:1007500000100105240101010424020605240600FD
:10076000010705810310004009040100020A00008E
:100770000007050202400000070583024000000454
:1007800003090412010002EF0201404123368000F8
:10079000010102030141726475696E6F204C4C4384
:1007A0000041726475626F790000400040004000B3
:1007B0004000400040004000400040004000400039
:1007C0004000400040004000400040004000400029
:1007D0004000400040004000400040004000400019
:1007E0004000400040004000400040004000400009
:1007F00040004000400040004000400040004000F9
:1008000040004000400040004000400040004000E8
:1008100040004000400040004000400040004000D8
:1008200040004000400040004000400040004000C8
:1008300040004000400040004000400040004000B8
:1008400040004000400040004000400040004000A8
:100850004000400040004000400040004000400098
:100860004000400040004000400040004000400088
:100870004000400040004000400040004000400078
:100880004000400040004000400040004000400068
:100890004000400040004000400040004000400058
:1008A0004000400040004000400040004015161548
:1008B00016151615161516151615161516151615E0
:1008C00016151615161516151615161516151615D0
:1008D0001615161516121C0F220C28092E063403A5
:1008E0003A013E013E013E013E013E013E013E0114
:1008F0003E013E013E013E013E013E013E013E0100
:100900003E013E013E013E013E013E013E013E01EF
:100910003E013E013E013E013E013E013E013E01DF
:100920003E013E013E013E013E013E013E013E01CF
:100930003E013E013E013E013E013E013E013E01BF
:100940003E013E013E013E013E013E013E013E01AF
:100950003E013E013E013E013E013E013E013E019F
:100960003E013E013E013E013E013E013E013E018F
:100970003E013E013E013E013E013E013E013E017F
:100980003E013E013E013E013E013E013E013E016F
:100990003E013E013E013E013E013E013E013E015F
:1009A0003E013E013E00860D11241FBECFEFDAE06E
:1009B000DEBFCDBF11E0A0E0B1E0E8E6F8E202C0A2
:1009C00005900D92A03DB107D9F728E0A0EDB1E068
:1009D00001C01D92A236B207E1F714E0C4EDD4E0E5
:1009E00004C02197FE010E942C14C33DD107C9F712
:1009F0000E94D60D0C9432140C940000EAEFF1E042
:100A0000A0E0B8E000800EBC8111012C1197A0FD80
:100A1000FDCF0192B9F70DB40895FC018091F90161
:100A2000882311F13FB7F89482E08093E900209188
:100A3000F200822F90E01816190614F481E090E07D
:100A4000882339F0289844E64093F8014091F1005A
:100A50004083222339F02091F200211103C02BE6BC
:100A60002093E8003FBF08958FEF9FEF08952FB7C1
:100A7000F89483E08093E9009091E800892F8072D8
:100A800095FF04C09091F20080E4891B2FBF089568
:100A90008091F00181110DC082E08093EC0184E02F
:100AA0008093ED011092EF011092EE0181E08093AE
:100AB000F0018CEE91E00895CF93DF931F92CDB7B4
:100AC000DEB76983DC01ED91FC910280F381E02DBA
:100AD00041E050E0BE016F5F7F4F09950F90DF91BD
:100AE000CF91089583E08093E9008091F2008823FC
:100AF00019F08AE38093E80008950E94370590E09A
:100B00000895CF93DF931F92CDB7DEB7FC018485A4
:100B1000958597FD08C02FEF3FEF358724870F900D
:100B2000DF91CF910895CE0101960E940D050197A6
:100B300019F4898190E0F3CF8FEF9FEFF0CF0F93FF
:100B40001F93CF93DF931F92CDB7DEB78C01FC01CB
:100B50008485958597FF0BC0CE0101960E940D05F7
:100B6000019771F4898190E0F80195878487F801F5
:100B7000848595850F90DF91CF911F910F910895F6
:100B80008FEF9FEFF1CFFC018485958597FD0BC01A
:100B90009FB7F89482E08093E9008091F2009FBFB4
:100BA00090E0019608959FB7F89482E08093E90061
:100BB0008091F2009FBF90E008954091E60150912E
:100BC000E7012091E4013091E50142175307B4F4A5
:100BD0009091E8009570E1F39091E80092FD19C0C2
:100BE0008093F1008091E6019091E70101968F7367
:100BF0009927892B19F48EEF8093E8008091E60104
:100C00009091E70101969093E7018093E60181E0DE
:100C1000089580E00895DF92EF92FF920F931F9363
:100C2000CF93DF93D82E8A01EB017B01E40EF51EF2
:100C3000CE15DF0559F0D7FE12C0FE0184910E9447
:100C4000DD0521968111F4CF0FEF1FEFC801DF9171
:100C5000CF911F910F91FF90EF90DF9008958881C1
:100C6000EECF0F931F93CF93DF931F92CDB7DEB7D5
:100C700082E0898342E450E06DE377E080E80E94FF
:100C80000B060E944805DC0112960D911C9101157E
:100C9000110589F0D801ED91FC910280F381E02DDE
:100CA000BE016F5F7F4FC801099597FD04C0F80131
:100CB00000851185ECCF89810F90DF91CF911F9135
:100CC0000F910895615030F02091F100FC012083D4
:100CD0000196F8CF289884E68093F8010895FC01E6
:100CE0000E940607319728F068517C4F8F4F9F4F25
:100CF000F9CFAB01FC010E940607641775078E0748
:100D00009F07C8F308958F929F92AF92BF92CF92A0
:100D1000DF92EF92FF920F931F93CF93DF936C01BB
:100D20007B018A0180910C01882309F45AC08091CB
:100D3000F901882309F455C08091EB0180FF05C0BB
:100D40008091E00082608093E000E801B12C8AEF9E
:100D5000A82E93E0892E2AE3922E209711F4BB202F
:100D6000C9F10E943705811108C0AA94AA20C9F1CF
:100D700081E090E00E946F06F0CF8C171D0611F005
:100D80000CF08C2F9FB7F8948092E9002091E80036
:100D900025FD02C09FBFE1CF282F30E0C21BD30B3F
:100DA000F701815020F041914093F100FACFE20E1B
:100DB000F31EBB2021F09092E800B12CEBCF809184
:100DC000E80085FDE7CF9092E800BB24B39420971C
:100DD00009F3F3CF5D9884E68093EA0110161106BB
:100DE0003CF081E090E0F6019383828310E000E024
:100DF000C801DF91CF911F910F91FF90EF90DF908D
:100E0000CF90BF90AF909F908F900895A0EEB1E0EB
:100E10002FB7F8947D918D919C9166B52FBFA89BBB
:100E200005C06F3F18F47F5F8F4F9F4F22E0660F22
:100E3000771F881F991F2A95D1F70895AF92BF9207
:100E4000CF92DF92EF92FF920F931F93CF93DF9396
:100E50006C017B018B01040F151FEB015E01AE18C5
:100E6000BF08C017D10759F06991D601ED91FC91E7
:100E70000190F081E02DC6010995892B79F7C50114
:100E8000DF91CF911F910F91FF90EF90DF90CF9066
:100E9000BF90AF9008954F925F926F927F928F9222
:100EA0009F92AF92BF92CF92DF92EF92FF920F93F9
:100EB0001F93CF93DF934C015901FC2DC02FD0E03D
:100EC000CE01880D991D181619060CF06CC020E88B
:100ED000821691040CF067C09B012E0D311D121675
:100EE00013060CF060C0603471050CF05CC0411555
:100EF000510509F458C0E62FE770FE2EDB0177FD9F
:100F0000179633E0B595A7953A95E1F73A2F77FF15
:100F100004C0FF2011F03FEF3A0F662777276819CA
:100F2000790997FC02C070E060E0803891050CF40C
:100F30004BC090E89819961BA32F032E000CBB0BF7
:100F40001A2F10953F3F0CF010E021E08E2D877096
:100F500009F420E0E694E694E694E20EAE0DB11DAD
:100F600019971CF028E0E22EE31AE11A310F20E86D
:100F70003203D0011124A80DB91DA60FB71F019F80
:100F8000600D711D1124460F571F0F2D0F2C000CE3
:100F9000110BF33009F41CC1C8F4F13009F4D0C0CE
:100FA000F23009F47CC0DF91CF911F910F91FF9037
:100FB000EF90DF90CF90BF90AF909F908F907F90F9
:100FC0006F905F904F900895902FB5CFFA3FB1F199
:100FD000232F2E0DFB3F39F7321729F3BD01665041
:100FE0007E4FD12CC12CC91608F0A4C0FA01EC0D1B
:100FF000FD1DE491F0E04F01002E02C0880C991C09
:101000000A94E2F737FD06C0FB018081E82CE094EA
:101010008E218083FF2061F0373054F45B01F0E8CB
:10102000AF0EB11CE92CE094F50180818E21808304
:10103000FFEFCF1ADF0A6F5F7F4FD5CF232F2E0D23
:10104000321709F4B0CFBD0166507E4FD12CC12CB0
:10105000C91608F069C0FA01EC0DFD1DE491F0E03D
:101060004F01002E02C0880C991C0A94E2F737FD4C
:1010700004C0FB01808188298083FF2051F0373034
:1010800044F45B01F0E8AF0EB11CF50180818929C1
:101090008083FFEFCF1ADF0A6F5F7F4FD9CF6FEFEB
:1010A00070E00F2C02C0660F771F0A94E2F760957C
:1010B0007095772E232F2E0D321709F474CFFD0172
:1010C000E650FE4F6F01B12CA12CA91638F5FA019C
:1010D000EA0DFB1DE491F0E02F01002E02C0440C4C
:1010E000551C0A94E2F737FD05C0F601808186237E
:1010F00084298083FF2059F037304CF44601F0E812
:101100008F0E911CF4018081872185298083FFEF58
:10111000AF1ABF0A8FEFC81AD80AD7CF3F5F4C0F5C
:101120005D1FA058BF4FC8CF3F5F4C0F5D1FA05839
:10113000BF4F86CF3F5F4C0F5D1FA058BF4F4CCFB6
:101140006A0D7B1D232F2E0D321709F42CCFFD01C4
:10115000E650FE4F6F01B12CA12CA91688F5FB01BA
:10116000EA0DFB1D8490912C002E02C0880C991C66
:101170000A94E2F780949094FA01EA0DFB1D6490C2
:10118000712C002E02C0660C771C0A94E2F737FD22
:1011900005C0F6018081882186298083FF2049F0DF
:1011A00037303CF4F601E058FF4F808189218729D0
:1011B0008083FFEFAF1ABF0A8FEFC81AD80ACDCFCE
:1011C0003F5F4C0F5D1F6C0F7D1FA058BF4FBCCF02
:1011D000C92ED12CFA01E60FF71FA650BE4F00E82A
:1011E00010E00C191D09CC19DD09BE01660F771F2F
:1011F00041E050E06A010F2C01C0CC0C0A94EAF7E0
:10120000592F2E2D792ECF93DF93ED01EF96EF9688
:1012100022968590A590FF2059F08C9C4001AC9CB3
:10122000500137302CF4E880B094EB20E928E992A3
:1012300033233AF0EC90A094EA20E828ED920C9445
:10124000220911965A9529F72A9551F0572D339571
:101250001124E60FF11DA00FB11DC00FD11DD9CF74
:10126000DF91CF9111249FCE90E00C946F068FB147
:101270008095807F669B88601C9B8460089590E1C8
:10128000282F81E061FD84E060FD880F62FD82957A
:10129000687F969FD0011124A20FA650BE4F0C90DC
:1012A000082A40FF08260C920895AF92BF92CF9271
:1012B000DF92EF92FF920F931F93CF93DF936B0117
:1012C000EC015C01A40EB11C7B01E20EF11CCA15FD
:1012D000DB05E4F48601D7FE02C010E000E0C701A0
:1012E00021E4E216F10414F080E490E008171907F5
:1012F0005CF4C038D10528F441E0B801CE010E9469
:101300003F090F5F1F4FEBCF2196E1CFDF91CF91C8
:101310001F910F91FF90EF90DF90CF90BF90AF9013
:1013200008958F929F92AF92BF92CF92DF92EF92E9
:10133000FF920F931F93CF93DF936D3089F0C0908E
:10134000D701D090D8016A30D1F41092D601109212
:10135000D50188E0C80ED11CD092D801C092D70127
:1013600081E090E0DF91CF911F910F91FF90EF907E
:10137000DF90CF90BF90AF909F908F900895009195
:10138000D5011091D601E5E06E9FE0011124C4550E
:10139000DF4F5801F12CF5E0E12CFF1629F0CE01CA
:1013A0000196FE01E490EC01912C812CF0E8AF163F
:1013B000B10458F4B601680D791D6034710528F444
:1013C0004E2D4170C5010E943F09E6948FEF881AA7
:1013D000980AE8E08E16910449F7F394FFEFAF1AEC
:1013E000BF0A86E0F812D7CF0A5F1F4F1093D601CD
:1013F0000093D501B5CFCF93C82F0E943709982FFE
:101400009C2381E09C1380E0CF91089580E00C94B0
:10141000FE04089590E080E00895FB010190002013
:10142000E9F73197AF01461B570BDC01ED91FC91B9
:101430000280F381E02D09948F929F92AF92BF9228
:10144000EF92FF920F931F93CF93DF93CDB7DEB749
:10145000A1970FB6F894DEBF0FBECDBF7C01FA0195
:10146000CB0119A2223008F42AE08E010F5D1F4F34
:10147000822E912CB12CA12CBF01A50194010E94B8
:10148000D313F901CA016A300CF5605DD8016E937F
:101490008D01232B242B252B79F790E080E01097EA
:1014A00021F0BD01C7010E940D0AA1960FB6F89464
:1014B000DEBF0FBECDBFDF91CF911F910F91FF9087
:1014C000EF90BF90AF909F908F900895695CDECFB2
:1014D0001F920F920FB60F9211248F939F938091BA
:1014E000E1009091E100937F9093E10083FF0FC0B2
:1014F0001092E90091E09093EB001092EC0092E3DF
:101500009093ED001092F90198E09093F00082FF23
:1015100022C093E09093E9009091F200992319F092
:101520009AE39093E8009091EA01992341F0909119
:10153000EA0191509093EA01911101C05D9A909156
:10154000F801992341F09091F80191509093F8019E
:10155000911101C0289A84FF18C08091E2008E7E0C
:1015600081608093E2008091E1008F7E8093E100B2
:101570008091EB018E7E80618093EB019F918F9132
:101580000F900FBE0F901F90189580FFF7CF80919E
:10159000E2008E7E80618093E2008091E1008E7E89
:1015A0008093E1008091EB018E7E8160E5CF1F92F8
:1015B0000F920FB60F921124CF92DF92EF92FF920B
:1015C0000F931F932F933F934F935F936F937F934B
:1015D0008F939F93AF93BF93EF93FF93CF93DF933B
:1015E000CDB7DEB76C97DEBFCDBF1092E90080911A
:1015F000E80083FF25C068E0CE0145960E946206A0
:1016000082EF8093E8008D8987FF39C09091E800D0
:1016100090FFFCCF982F907609F034C19E894F89B6
:10162000588D2F89F88C911131C0803861F58091E7
:10163000E9018093F1001092F1008EEF8093E800B1
:101640006C960FB6F894DEBF0FBECDBFDF91CF9181
:10165000FF91EF91BF91AF919F918F917F916F918A
:101660005F914F913F912F911F910F91FF90EF90BC
:10167000DF90CF900F900FBE0F901F9018959EEFA8
:101680009093E800C7CF1092F100D5CF913059F474
:101690008111D3CF4130510581F68091E9018D7FD1
:1016A0008093E901CACF933049F48111C6CF41300C
:1016B000510519F68091E9018260F2CF953041F42D
:1016C0008091E80080FFFCCF20682093E300B5CF35
:1016D000963009F0A9C00B8D1C8D22E01092E90014
:1016E0001092E7011092E601F2122EC01092E5016D
:1016F0001092E4010E9431061F8299E09983FA82D8
:1017000091E09E8390EA98879AEF99872091E6016D
:101710003091E701275F3F4F3C832B838D831092ED
:10172000E9001092E7011092E6011093E5010093A1
:10173000E40149E050E0BE016F5F7F4F80E00E940E
:101740000B060E94310679CF1093E5010093E40166
:101750000E944805DC0112960D911C91011511059E
:1017600009F451C1D801ED91FC910480F581E02D7F
:10177000BE016B5E7F4FC8010995009709F03EC11D
:10178000F80100851185EACFF3E0FF120EC08F89C2
:10179000882309F440C0823061F440E867E081EAC0
:1017A00097E00E94530D811148CF81E28093EB00B6
:1017B00047CF813029F440E86BE085E997E0F1CF2D
:1017C000833099F70E944805DC011296ED90FC9059
:1017D0008E010F5F1F4F6801E114F10479F0D7010A
:1017E000ED91FC910680F781E02DB801C7010995C4
:1017F000080F111DF701E084F184EECFD8011C928F
:10180000F60101900020E9F73197BF016C197D09BD
:1018100040E0C601C6CF6FE777E0FB01449150E09E
:1018200080E80E940B0609CF973009F4BECF9830AC
:1018300021F481E08093F10000CF993009F0FDCED2
:10184000837009F0B2CFE6EAF1E081E031E096E39F
:101850002191222371F08093E9003093EB00DF01A6
:1018600011972C912093EC009093ED008F5F8730BF
:1018700079F78EE78093EA001092EA008F898093CF
:10188000F901DBCE8B8D9C8D1092E9001092E7015F
:101890001092E6019093E5018093E401898D811116
:1018A00092C08E899D89913A49F4813209F07DCFA9
:1018B00047E050E065E071E080E0B3CF913209F09D
:1018C00074CF833269F48F89988DB0E0A0E0809363
:1018D000010190930201A0930301B0930401ADCEE6
:1018E000803269F48091E80082FFFCCF67E085E0F8
:1018F00091E00E9462068BEF8093E8009ECE8232D8
:1019000009F09BCE8F8980930C01EEEFFFE7859164
:1019100094918B3F9C4D51F1E0E0F8E080910501FE
:1019200090910601A0910701B0910801803B94407D
:10193000A105B105F1F480910C0180FD1AC0EE3FC4
:101940008AE0F80789F587E797E79183808380919C
:1019500060008093E80188E19BE00FB6F894A895B9
:10196000809360000FBE9093600067CEEEEFFAE0C8
:10197000D5CF808191818737974709F05ECEA895B2
:10198000809160008861809360008091E80180937D
:101990006000EE3F2AE0F20789F08091FE0A909104
:1019A000FF0A9183808349CE808191818737980790
:1019B00051F29093FF0A8093FE0AC5CF1092FF0A5E
:1019C0001092FE0A3ACE0E944805DC0112960D9153
:1019D0001C910115110509F4E8CED801ED91FC9197
:1019E0000190F081E02DBE016B5E7F4FC80109952B
:1019F000811123CEF80100851185EBCF1816190649
:101A00000CF41BCED2CEF1E0FF12BECE63E877E03D
:101A100004CF0F920FB68F939F93EF93FF93809114
:101A2000DB018D5F8D3708F08D578093DB01ECED86
:101A3000F1E080818E4F808391819F4F91838281DD
:101A40008F4F828383818F4F8383E0EEF1E080812B
:101A50008F5F808381818F4F818382818F4F8283CB
:101A600083818F4F83838FB18F6066991C9B8827FA
:101A70008F3681F48091DA01981B963068F0E0E0AF
:101A8000F8E087E78083818388E180936000F093AA
:101A90006000FFCF9093DA01FF91EF919F918F91BA
:101AA0000FBE0F901895EF92FF920F931F93CF9355
:101AB000DF93F82E192FE62E042F81E0860F880F72
:101AC0000E94DD0583E00E94DD05CF2DD12FEC0EB5
:101AD000FD2EF11CCE15DF05B9F007FF13C0FE0186
:101AE00084910E94DD05182F80E00E94DD0581238E
:101AF00021968111EFCFDF91CF911F910F91FF9030
:101B0000EF9008958881EDCF81E0F5CFEAEFF5E021
:101B10001382128288EE93E0A0E0B0E08483958384
:101B2000A683B78380EB91E0918380838FEF9FEF53
:101B300095878487AEE5B8E013961C921E921297A3
:101B400082EC91E011969C938E93E1E5F8E0B183ED
:101B5000A08389E182838CE183831482B683A58389
:101B60008AEE8783808713861486EAE4F6E0B183E1
:101B7000A0838DE091E09383828310924A081092B3
:101B80004B0882E080934C0884E080934D0881E00C
:101B900080934E0880934F08109250084CEF51E00C
:101BA00069EA77E08EE496E00C947E13CDB7DEB759
:101BB0002897DEBFCDBF789483E084BD83E085BDE8
:101BC00081E080936E00E1E8F0E083E08083E0E86C
:101BD00081E08083E1E983E08083E0E981E0808344
:101BE000E1EC87E08083E3EC81E08083E0EC82E05D
:101BF0008083E2EC81E08083EAE787E0808380688D
:101C000080831092F9011092E9011092EB0180910A
:101C1000D70081608093D70080EA8093D80089B58F
:101C2000806189BD89B5826089BD09B400FEFDCFA0
:101C300081E090E00E946F068091D8008F7C8061E7
:101C40008093D8008091E000807F8093E0008091B5
:101C5000E1008E7E8093E1008DE08093E200559A52
:101C6000209A81EC80937C0081EF85B987EE84B95E
:101C700084E38BB984EF8AB9769A6E9880EF81BB42
:101C800010BA80E58CBD81E08DBD85E00E943409ED
:101C90005F9A85E00E9434095C98ECE5F6E0859156
:101CA0008EBD00000DB407FEFDCFE936C1F75C9A8A
:101CB00081E88093640081E0809365000E94060AB9
:101CC00080E80E94FB098823A9F05C9885EA8EBD14
:101CD00000000DB407FEFDCF5C9A2E982F982D982A
:101CE0008091640080628093640081E083BF889566
:101CF00013BEFCCF84E00E94FB098823B9F12D9824
:101D000084E80E94FB098823A1F02D9A88EC0E94A8
:101D100034092F986FEF82E090E00E948F1384EFD8
:101D200091E00E946F062F9A84E80E94FB098111BE
:101D3000FBCF84E10E94FB098823A1F02D9A88EC57
:101D40000E9434092E9860E082E090E00E948F1398
:101D500084EF91E00E946F062E9A84E10E94FB09B5
:101D60008111FBCF88EC0E943409C4CF2D9A82E008
:101D700090E00E948713882309F474C03E9A3F9A2A
:101D800081E090E00E948713082F0470D02E81FF1D
:101D90000CC001112E9801EF1FEF80E40E94FB0997
:101DA000882309F462C02E9A2F9A82E30E94340994
:101DB0000E9437098111F9CF80E180930001809161
:101DC00064008E7F8093640080917A0080648093A9
:101DD0007A0080917A0086FDFCCF00917800109106
:101DE00079000E940607AB01BC01C801B0E0A0E089
:101DF000DC01992788278C019D01040F151F261FE0
:101E0000371FC901B801209164002160209364004C
:101E1000611571058105910511F00E947513E8E0C7
:101E20002E2E312C44244A94512CA8E08A2E912C39
:101E3000A12CB12C1FEF9091DC018091D301292FAF
:101E4000281B822F0091D201002309F4A9C02093FE
:101E5000D4011092D20180E090E0892B61F30E94BE
:101E60000000E8CF3E983F988BCFDD2029F004306A
:101E7000110511F42E9A2F9881E00E94FE04202F64
:101E80002770C22E980183E0359527958A95E1F752
:101E9000C9019695982F88279795879586509E4FCC
:101EA000F12CE12C2E3F4FEF340751F1DC01AC5601
:101EB000BF4FBC0150E040E0F701E455FA4F5F012D
:101EC000F501E40FF51FE491F0E03F010C2C02C096
:101ED000660C771C0A94E2F72F3F320721F0FB01D2
:101EE00094889628948ACC2019F0EC91E729EC93F9
:101EF0004F5F5F4F11966F5F7F4F4835510501F778
:101F00002F5F3F4F80589F4FF8E5EF0EF11C40EBDD
:101F1000E416F10439F60E94060A8FE00E943409A3
:101F20000F5F1F4F0931110509F037CFDD2011F088
:101F30002F9A2D9880E991E00E946F062D9A81E0FA
:101F400090E00E94871380FF30CF8AE090E00E94EB
:101F500087139FEF980F9E3F08F027CF22E330E0D2
:101F60003093D6012093D50128E330E03093D80197
:101F70002093D7010AE010E0682F8EE598E00E94D8
:101F800091090F5F1F4FC8010E948713003111058F
:101F900099F70E94060A88EE93E00E946F0605CF2B
:101FA00020910001821748F48F5F821708F053CF09
:101FB00081E083BF889513BE4ECFFF24F394F09247
:101FC000D2019093D301E0EDF1E0808191810196FF
:101FD000808391830E9437098093D901EAEFF1E071
:101FE00001110FEF8FEF0193019301930193815042
:101FF000D0F71092D8011092D7011092D60110920A
:10200000D50180E20E94FB09882321F086E08093BD
:102010004D080DC084E00E94FB098111F7CF80E4D8
:102020000E94FB09882309F47EC1F0924D0880913B
:102030004C08815080934C08811124C0EAE4F6E0FA
:1020400084E498E0268124832781258332968E17A5
:102050009F07C1F790E080E0E0914C06F0914D06BB
:10206000E80FF91F20812150208307968D349105B8
:1020700099F780914B088F5F80934B0880914D08B2
:1020800080934C0880914B088E3708F481C088E01B
:10209000EDE9F1E0DE01119601900D928A95E1F7EC
:1020A0005CE4652E57E0752E6AE4E62E68E0F62EB5
:1020B00003E0DD24D3947FE3C72E0E942613A501FD
:1020C00094010E94A11341E050E04C0F5D1F640F8A
:1020D000751FFB01808190914E08890F80934E08F7
:1020E0000E942613A50194010E94A11321E030E073
:1020F0002C0F3D1F620F731FFB01808190914F08D1
:10210000890F80934F0890914E0819160CF40DC159
:10211000D0924E08181644F0D0924F0880914E0885
:10212000843014F000934E0880914F08843014F0EE
:1021300000934F0890914E0880914F08890FFC2D15
:10214000F81B8F2FF30190838183F2E06F0E711CD7
:10215000E614F70409F0B1CF90E08FE730E020E01B
:102160004EE151E0E0914C06F0914D06E20FF31F75
:102170006681611104C08083418356839F5F9A30DA
:1021800028F4295F3F4F855F8B3561F710924B082C
:1021900090E080E02EEDE0914C06F0914D06E80FC6
:1021A000F91F3681332331F030813B3018F420831E
:1021B0002183168207968D34910569F780E80E9485
:1021C000FB09882309F4B5C080915408815080939D
:1021D000540888E00E94FB098823A1F080915C08E4
:1021E000811110C0809153088B5F809358088091B3
:1021F00054088D5F8093590881E080935C0882E0E9
:1022000080935B0880915C088823E1F080915808F6
:1022100090915B08913009F4A1C00CF094C08250F9
:10222000992309F4A0C08091580887FD04C08091CB
:102230005908843438F010925C088AEE809358086C
:1022400080935908EDE0F1E027E331E0DF018EED06
:1022500016969C911697992351F09C919B3038F4D7
:102260008C9311968C93119716961C92169717962D
:102270002A173B0769F760915C087EED0AEE8091B2
:10228000580890E0208130E0AC014E5F5F4F42176C
:102290005307D4F04281240F311D82179307A4F411
:1022A000209159089181921778F48381890F992799
:1022B000991F2817190644F47083718316820093BE
:1022C00058080093590860E03796AE17BF07B9F673
:1022D00060935C08AAE4B6E030E020E014969C919C
:1022E000149715960C911597090F892F8695869549
:1022F0008695815097708F3FC9F1F12C682F082E79
:10230000000C770BEF2DF0E06E177F077CF1F69550
:10231000FE2FEE27F795E795E20FF31FE650FE4FED
:102320001083F394EFCF82E072CE18160CF4F6CE41
:10233000F3CE80E10E94FB09882309F44ACF809103
:1023400054088F5F44CF923069F0809159088250D1
:10235000933009F068CF8093590865CF8091590870
:102360008E5FF9CF8E5F809358085DCF9923B9F0C7
:10237000E82F880FFF0B3196F695FE2FEE27F79585
:10238000E795E20FF31FE650FE4FA101491B5109EB
:10239000B20102C0759567954A95E2F76083F02E09
:1023A000F694F694F69407708F2D90E0BC01769524
:1023B000762F662777956795620F731F50E040E090
:1023C000EF2DE40FE83070F4FA01F695FE2FEE27BA
:1023D000F795E795E60FF71FE650FE4F10834F5F26
:1023E0005F4FEECF0023B1F0A101401B5109F20174
:1023F00002C0F595E7954A95E2F7AF01FC01F69525
:10240000FE2FEE27F795E795E20FF31FE650FE4FFC
:10241000409540832F5F3F4F12962F37310509F0CB
:102420005DCF712C612CA0914C06B0914D06A60D8C
:10243000B71D16968C9116978823A1F0EBE7F6E06E
:102440000491ECE7F6E0E49011966C91119770E03E
:102450008C9153E0C52E30E020E04DE756E090E04F
:102460000E944B07F7E06F0E711C0DE460167104BB
:10247000D1F68AE590E09093D6018093D501109231
:10248000D8011092D701E0904A06F0904B06409197
:102490004B0850E070E060E02AE0C7010E941C0A8F
:1024A0006AEC71E0C7010E940D0A20915508609105
:1024B0005408062E000C770B80915308082E000C50
:1024C000990BE9E6F6E00491EAE6F6E0E4904BE6E3
:1024D00056E02223F1F041E050E03E2D377011F438
:1024E00050E040E03E2D369536953695430F511D10
:1024F000049FD001059FB00D112430E0220F331F3F
:10250000A29FA001A39F500DB29F500D11244559C9
:10251000594F23E0C22E30E020E00E944B079091FB
:102520005A088091580860915908062E000C770BC4
:1025300023E041E0911102C021E043E0082E000CAD
:10254000990B0E945509EBE8F6E00491ECE8F6E0FF
:10255000E49082E0C82E30E020E04DE856E070E0E4
:1025600060E090E080E00E944B071092D60110924C
:10257000D5011092D8011092D7018091D40124E6A0
:10258000829FC00111246091000170E00E94041438
:10259000AB01770F660B770B2AE08EE598E00E947F
:1025A0001C0A6DEC71E08EE598E00E940D0A0E9415
:1025B000060A51CC8F929F92AF92BF92CF92DF9238
:1025C000EF92FF92CF93DF93EC01688179818A814A
:1025D0009B81611571058105910521F464E279ED16
:1025E0008BE597E02DE133EF41E050E00E94A1132D
:1025F00049015A019B01AC01A7EAB1E40E94C01352
:102600006B017C01ACEEB4EFA50194010E94CE13E6
:10261000C60ED71EE81EF91EF7FE06C081E0C81AD6
:10262000D108E10880E8F80AC882D982EA82FB82F0
:10263000C701B6019F77DF91CF91FF90EF90DF90B8
:10264000CF90BF90AF909F908F9008958F929F9260
:10265000AF92BF92CF92DF92EF92FF926091990179
:1026600070919A0180919B0190919C016115710577
:102670008105910521F464E279ED8BE597E02DE188
:1026800033EF41E050E00E94A11349015A019B0140
:10269000AC01A7EAB1E40E94C0136B017C01ACEE6F
:1026A000B4EFA50194010E94CE13C60ED71EE81EFA
:1026B000F91EF7FE06C081E0C81AD108E10880E8DB
:1026C000F80AC0929901D0929A01E0929B01F0928F
:1026D0009C01C701B6019F77FF90EF90DF90CF90EC
:1026E000BF90AF909F908F900895609399017093E1
:1026F0009A0180939B0190939C010895FB01DC015A
:1027000002C005900D9241505040D8F70895F999B4
:10271000FECF92BD81BDF89A992780B50895262FE6
:10272000F999FECF92BD81BDF89A019700B40216C7
:1027300039F01FBA20BD0FB6F894FA9AF99A0FBE75
:102740000895052E97FB1EF400940E94B81357FDC0
:1027500007D00E94D31307FC03D04EF40C94B81397
:1027600050954095309521953F4F4F4F5F4F0895BD
:1027700090958095709561957F4F8F4F9F4F0895ED
:102780000E94F513A59F900DB49F900DA49F800DFE
:10279000911D11240895B7FF0C94C0130E94C0131B
:1027A000821B930B0895A1E21A2EAA1BBB1BFD01ED
:1027B0000DC0AA1FBB1FEE1FFF1FA217B307E40720
:1027C000F50720F0A21BB30BE40BF50B661F771F78
:1027D000881F991F1A9469F7609570958095909558
:1027E0009B01AC01BD01CF010895A29FB001B39F31
:1027F000C001A39F700D811D1124911DB29F700D0A
:10280000811D1124911D089597FB072E16F4009445
:1028100007D077FD09D00E94181407FC05D03EF4BC
:10282000909581959F4F0895709561957F4F08957C
:10283000AA1BBB1B51E107C0AA1FBB1FA617B707E6
:1028400010F0A61BB70B881F991F5A95A9F7809502
:102850009095BC01CD010895EE0FFF1F0590F491F6
:08286000E02D0994F894FFCF6C
:1028680010FFFFFFFF00E1000000000000C8640740
:10287800087B0600C86407087B0600C86407087B55
:102888000600C86407087B0600C86407087B0600C2
:10289800C86407087B0600C86407087B0600C8648C
:1028A80007087B0600C86407087B0600C864070899
:1028B8007B0600C86407087B0600C86407087B0617
:1028C80000C86407087B0600C86407087B0600C8C0
:1028D8006407087B0600C86407087B0600C864070D
:1028E800087B0600C86407087B0600C86407087BE5
:1028F8000600C86407087B060001000000FFFFFF10
:10290800000001010100C1808100000000000000FA
:102918005C0583067D057205C30581059F050000DA
:10292800000091091E070A0A090A0D0A002500007D
:00000001FF
