:100000000C94D6030C94FE030C94FE030C94FE0394
:100010000C94FE030C94FE030C94FE030C94FE035C
:100020000C94FE030C94FE030C946A090C94D909F9
:100030000C94FE030C94FE030C94FE030C94FE033C
:100040000C94FE030C94FE030C94FE030C94FE032C
:100050000C94FE030C94FE030C94FE030C940B0C06
:100060000C94FE030C94FE030C94FE030C94FE030C
:100070000C94FE030C94FE030C94FE030C94FE03FC
:100080000C94FE030C94FE030C94FE030C94FE03EC
:100090000C94FE030C94FE030C94FE030C94FE03DC
:1000A0000C94FE030C94FE030C94FE03000000006D
:1000B000003E5B4F5B3E3E6B4F6B3E1C3E7C3E1CEE
:1000C000183C7E3C181C577D571C1C5E7F5E1C0034
:1000D000183C1800FFE7C3E7FF0018241800FFE7EB
:1000E000DBE7FF30483A060E2629792926407F05AE
:1000F0000507407F05253F5A3CE73C5A7F3E1C1CC4
:1001000008081C1C3E7F14227F22145F5F005F5F83
:1001100006097F017F006689956A6060606060946F
:10012000A2FFA29408047E040810207E2010080874
:100130002A1C08081C2A08081E101010100C1E0C7F
:100140001E0C30383E3830060E3E0E060000000011
:100150000000005F00000007000700147F147F14F8
:10016000242A7F2A1223130864623649562050003D
:1001700008070300001C2241000041221C002A1C29
:100180007F1C2A08083E0808008070300008080814
:100190000808000060600020100804023E51494534
:1001A0003E00427F400072494949462141494D3352
:1001B0001814127F1027454545393C4A49493141B9
:1001C000211109073649494936464949291E000087
:1001D00014000000403400000008142241141414DC
:1001E0001414004122140802015909063E415D59C8
:1001F0004E7C1211127C7F494949363E41414122D1
:100200007F4141413E7F494949417F090909013EFA
:10021000414151737F0808087F00417F4100204021
:10022000413F017F081422417F404040407F021C33
:10023000027F7F0408107F3E4141413E7F0909094A
:10024000063E4151215E7F09192946264949493216
:1002500003017F01033F4040403F1F2040201F3FDC
:100260004038403F63140814630304780403615961
:10027000494D43007F4141410204081020004141A3
:10028000417F04020102044040404040000307084F
:100290000020545478407F2844443838444444284B
:1002A000384444287F385454541800087E090218F2
:1002B000A4A49C787F0804047800447D400020407A
:1002C000403D007F1028440000417F40007C0478BE
:1002D00004787C080404783844444438FC18242406
:1002E0001818242418FC7C08040408485454542486
:1002F00004043F44243C4040207C1C2040201C3C03
:100300004030403C44281028444C9090907C4464F9
:10031000544C44000836410000007700000041368C
:10032000080002010204023C2623263C1EA1A16112
:10033000123A4040207A3854545559215555794144
:100340002154547841215554784020545579400C1B
:100350001E527212395555555939545454593955FC
:100360005454580000457C410002457D420001453F
:100370007C40F0292429F0F0282528F07C545545AC
:10038000002054547C547C0A097F4932494949323F
:100390003248484832324A4848303A4141217A3A54
:1003A00042402078009DA0A07D39444444393D401E
:1003B00040403D3C24FF2424487E4943662B2FFCCB
:1003C0002F2BFF0929F620C0887E09032054547979
:1003D000410000447D413048484A32384040227A4A
:1003E000007A0A0A727D0D19317D2629292F2826C7
:1003F0002929292630484D402038080808080808CF
:100400000808382F10C8ACBA2F102834FA00007B27
:10041000000008142A142222142A1408950022002D
:1004200095AA005500AAAA55AA55AA000000FF00E7
:10043000101010FF00141414FF001010FF00FF1024
:1004400010F010F0141414FC001414F700FF000056
:10045000FF00FF1414F404FC141417101F10101FD5
:10046000101F1414141F00101010F0000000001FC3
:10047000101010101F10101010F010000000FF10CE
:100480001010101010101010FF10000000FF1400CA
:1004900000FF00FF00001F10170000FC04F41414FC
:1004A0001710171414F404F40000FF00F7141414C8
:1004B00014141414F700F7141414171410101F1048
:1004C0001F141414F4141010F010F000001F101F6B
:1004D0000000001F14000000FC140000F010F010D9
:1004E00010FF10FF141414FF141010101F00000050
:1004F00000F010FFFFFFFFFFF0F0F0F0F0FFFFFF54
:100500000000000000FFFF0F0F0F0F0F38444438AA
:10051000447C2A2A3E147E02020606027E027E02E5
:1005200063554941633844443C04407E201E200604
:10053000027E020299A5E7A5991C2A492A1C4C7241
:1005400001724C304A4D4D303048784830BC625AC8
:10055000463D3E494949007E0101017E2A2A2A2A58
:100560002A44445F444440514A444040444A514034
:100570000000FF0103E080FF000008086B6B0836F5
:1005800012362436060F090F060000181800000066
:100590001010003040FF0101001F01011E00191D55
:1005A0001712003C3C3C3C0000000000F0F89C8E20
:1005B0008783878E9CF8F00000FEFF03030303038C
:1005C000070EFCF80000FEFF0303030303070EFC05
:1005D000F80000FFFF00000000000000FFFF000027
:1005E000FEFF8383838383C7EE7C380000F8FC0E14
:1005F00007030303070EFCF800003F7FE0C0808084
:10060000C0E07F3FFFFF01010101010101FFFF0089
:1006100000FFFF0C0C0C0C1C3E77E3C100007FFFB9
:10062000C0C0C0C0C0E0703F1F00001F3F70E0C0EE
:10063000C0C0E0703F1F00007FFFC1C1C1C1C1E366
:10064000773E1C00001F3F70E0C0C0C0E0703F1F3D
:10065000000000000001FFFF01000000D5F08D1434
:10066000A1C881CFD9F1AF20000708117F5E7F3A82
:100670007F6E7F3A7F5E7F117F080849496B6B7FF1
:100680007F6B7F223E363E1C1C0808164000FE622F
:10069000626202FA2A2A0A0202FE0000000000003A
:1006A00000000000FF00000000010000000000FF4B
:1006B00000000000000000000000FF00000000003B
:1006C0000000000000FF000000000000000000002B
:1006D000FF00000000000000000000FF000000001C
:1006E000000000000000FF0000000000000000000B
:1006F00000FF00000000000000000000FF000000FC
:1007000000000000000000FF0000000000000000EA
:100710000000FF00000000808080800000FF0000DB
:1007200000000000000000007F464646405F525235
:100730005040407F000000000000000000080B0057
:100740000202020000090400000102020000052468
:1007500000100105240101010424020605240600FD
:10076000010705810310004009040100020A00008E
:100770000007050202400000070583024000000454
:1007800003090412010002EF0201404123368000F8
:10079000010102030141726475696E6F204C4C4384
:1007A0000041726475626F790000880C11241FBECD
:1007B000CFEFDAE0DEBFCDBF11E0A0E0B1E0E2E3D1
:1007C000F5E202C005900D92AE34B107D9F727E0EB
:1007D000AEE4B1E001C01D92AD3DB207E1F713E018
:1007E000C6EDD3E004C02197FE010E949112C53DE1
:1007F000D107C9F70E94C60C0C9497120C94000004
:10080000E8E7F1E0A0E0B8E000800EBC8111012C27
:100810001197A0FDFDCF0192B9F70DB40895FC0129
:1008200080917701882311F13FB7F89482E080939B
:10083000E9002091F200822F90E01816190614F4B6
:1008400081E090E0882339F0289844E640937601CF
:100850004091F1004083222339F02091F2002111D0
:1008600003C02BE62093E8003FBF08958FEF9FEF72
:1008700008952FB7F89483E08093E9009091E80001
:10088000892F807295FF04C09091F20080E4891B4B
:100890002FBF089580916E0181110DC082E0809379
:1008A0006A0184E080936B0110926D0110926C01DB
:1008B00081E080936E018AE691E00895CF93DF9303
:1008C0001F92CDB7DEB76983DC01ED91FC91028008
:1008D000F381E02D41E050E0BE016F5F7F4F09954D
:1008E0000F90DF91CF91089583E08093E90080918C
:1008F000F200882319F08AE38093E80008950E94AB
:10090000390490E00895CF93DF931F92CDB7DEB7FF
:10091000FC018485958597FD08C02FEF3FEF358753
:1009200024870F90DF91CF910895CE0101960E9408
:100930000F04019719F4898190E0F3CF8FEF9FEFB7
:10094000F0CF0F931F93CF93DF931F92CDB7DEB7F6
:100950008C01FC018485958597FF0BC0CE01019623
:100960000E940F04019771F4898190E0F801958746
:100970008487F801848595850F90DF91CF911F9131
:100980000F9108958FEF9FEFF1CFFC01848595853E
:1009900097FD0BC09FB7F89482E08093E9008091A7
:1009A000F2009FBF90E0019608959FB7F89482E00F
:1009B0008093E9008091F2009FBF90E008954091FC
:1009C00064015091650120916201309163014217E9
:1009D0005307B4F49091E8009570E1F39091E8002A
:1009E00092FD19C08093F10080916401909165019E
:1009F00001968F739927892B19F48EEF8093E80065
:100A000080916401909165010196909365018093B6
:100A1000640181E0089580E00895DF92EF92FF92F3
:100A20000F931F93CF93DF93D82E8A01EB017B01A5
:100A3000E40EF51ECE15DF0559F0D7FE12C0FE01FB
:100A400084910E94DF0421968111F4CF0FEF1FEFF4
:100A5000C801DF91CF911F910F91FF90EF90DF9030
:100A600008958881EECF0F931F93CF93DF931F924A
:100A7000CDB7DEB782E0898342E450E06DE377E0F2
:100A800080E80E940D050E944A04DC0112960D9137
:100A90001C910115110589F0D801ED91FC9102809E
:100AA000F381E02DBE016F5F7F4FC801099597FD6F
:100AB00004C0F80100851185ECCF89810F90DF918A
:100AC000CF911F910F910895615030F02091F10066
:100AD000FC0120830196F8CF289884E68093760164
:100AE0000895FC010E940806319728F068517C4F58
:100AF0008F4F9F4FF9CFAB01FC010E94080664178E
:100B000075078E079F07C8F308958F929F92AF9243
:100B1000BF92CF92DF92EF92FF920F931F93CF93EA
:100B2000DF936C017B018A0180911E01882309F407
:100B30005AC080917701882309F455C080916901DA
:100B400080FF05C08091E00082608093E000E801B2
:100B5000B12C8AEFA82E93E0892E2AE3922E2097BB
:100B600011F4BB20C9F10E943904811108C0AA9474
:100B7000AA20C9F181E090E00E947105F0CF8C17A6
:100B80001D0611F00CF08C2F9FB7F8948092E900AD
:100B90002091E80025FD02C09FBFE1CF282F30E063
:100BA000C21BD30BF701815020F041914093F1001B
:100BB000FACFE20EF31EBB2021F09092E800B12C98
:100BC000EBCF8091E80085FDE7CF9092E800BB2451
:100BD000B394209709F3F3CF5D9884E6809368017E
:100BE000101611063CF081E090E0F60193838283B9
:100BF00010E000E0C801DF91CF911F910F91FF90AD
:100C0000EF90DF90CF90BF90AF909F908F9008951E
:100C1000AEE5B1E02FB7F8947D918D919C9166B5CA
:100C20002FBFA89B05C06F3F18F47F5F8F4F9F4F6A
:100C300022E0660F771F881F991F2A95D1F7089524
:100C4000AF92BF92CF92DF92EF92FF920F931F93DA
:100C5000CF93DF936C017B018B01040F151FEB0118
:100C60005E01AE18BF08C017D10759F06991D601CF
:100C7000ED91FC910190F081E02DC6010995892B41
:100C800079F7C501DF91CF911F910F91FF90EF9000
:100C9000DF90CF90BF90AF9008954F925F926F9288
:100CA0007F928F929F92AF92BF92CF92DF92EF92FC
:100CB000FF920F931F93CF93DF934C015901FC2DAB
:100CC000C02FD0E0CE01880D991D181619060CF022
:100CD0006CC020E8821691040CF067C09B012E0DB9
:100CE000311D121613060CF060C0603471050CF053
:100CF0005CC04115510509F458C0E62FE770FE2E7F
:100D0000DB0177FD179633E0B595A7953A95E1F7A6
:100D10003A2F77FF04C0FF2011F03FEF3A0F66270C
:100D200077276819790997FC02C070E060E0803885
:100D300091050CF44BC090E89819961BA32F032E35
:100D4000000CBB0B1A2F10953F3F0CF010E021E078
:100D50008E2D877009F420E0E694E694E694E20E86
:100D6000AE0DB11D19971CF028E0E22EE31AE11A2E
:100D7000310F20E83203D0011124A80DB91DA60FB0
:100D8000B71F019F600D711D1124460F571F0F2DB6
:100D90000F2C000C110BF33009F41CC1C8F4F13016
:100DA00009F4D0C0F23009F47CC0DF91CF911F91DB
:100DB0000F91FF90EF90DF90CF90BF90AF909F90FA
:100DC0008F907F906F905F904F900895902FB5CF48
:100DD000FA3FB1F1232F2E0DFB3F39F7321729F3DC
:100DE000BD0168587E4FD12CC12CC91608F0A4C093
:100DF000FA01EC0DFD1DE491F0E04F01002E02C060
:100E0000880C991C0A94E2F737FD06C0FB0180812B
:100E1000E82CE0948E218083FF2061F0373054F479
:100E20005B01F0E8AF0EB11CE92CE094F501808184
:100E30008E218083FFEFCF1ADF0A6F5F7F4FD5CF00
:100E4000232F2E0D321709F4B0CFBD0168587E4F05
:100E5000D12CC12CC91608F069C0FA01EC0DFD1D9A
:100E6000E491F0E04F01002E02C0880C991C0A9416
:100E7000E2F737FD04C0FB01808188298083FF20D1
:100E800051F0373044F45B01F0E8AF0EB11CF501CE
:100E9000808189298083FFEFCF1ADF0A6F5F7F4F40
:100EA000D9CF6FEF70E00F2C02C0660F771F0A9446
:100EB000E2F760957095772E232F2E0D321709F4E7
:100EC00074CFFD01E858FE4F6F01B12CA12CA9167B
:100ED00038F5FA01EA0DFB1DE491F0E02F01002E38
:100EE00002C0440C551C0A94E2F737FD05C0F60118
:100EF0008081862384298083FF2059F037304CF489
:100F00004601F0E88F0E911CF4018081872185292C
:100F10008083FFEFAF1ABF0A8FEFC81AD80AD7CF66
:100F20003F5F4C0F5D1FA058BF4FC8CF3F5F4C0FB6
:100F30005D1FA058BF4F86CF3F5F4C0F5D1FA0586D
:100F4000BF4F4CCF6A0D7B1D232F2E0D321709F496
:100F50002CCFFD01E858FE4F6F01B12CA12CA91632
:100F600088F5FB01EA0DFB1D8490912C002E02C038
:100F7000880C991C0A94E2F780949094FA01EA0D87
:100F8000FB1D6490712C002E02C0660C771C0A9425
:100F9000E2F737FD05C0F60180818821862980832C
:100FA000FF2049F037303CF4F601E058FF4F8081D4
:100FB000892187298083FFEFAF1ABF0A8FEFC81AF4
:100FC000D80ACDCF3F5F4C0F5D1F6C0F7D1FA0581F
:100FD000BF4FBCCFC92ED12CFA01E60FF71FA8587E
:100FE000BE4F00E810E00C191D09CC19DD09BE0147
:100FF000660F771F41E050E06A010F2C01C0CC0C56
:101000000A94EAF7592F2E2D792ECF93DF93ED0115
:10101000EF96EF9622968590A590FF2059F08C9C34
:101020004001AC9C500137302CF4E880B094EB20A8
:10103000E928E99233233AF0EC90A094EA20E828DA
:10104000ED920C94240811965A9529F72A9551F09F
:10105000572D33951124E60FF11DA00FB11DC00FC0
:10106000D11DD9CFDF91CF9111249FCE90E00C9468
:1010700071058FB18095807F669B88601C9B846022
:10108000089590E1282F81E061FD84E060FD880FE4
:1010900062FD8295687F969FD0011124A20FA85807
:1010A000BE4F0C90082A40FF08260C920895AF927C
:1010B000BF92CF92DF92EF92FF920F931F93CF9345
:1010C000DF936B01EC015C01A40EB11C7B01E20E0D
:1010D000F11CCA15DB05E4F48601D7FE02C010E05E
:1010E00000E0C70121E4E216F10414F080E490E08E
:1010F000081719075CF4C038D10528F441E0B8019D
:10110000CE010E9441080F5F1F4FEBCF2196E1CF28
:10111000DF91CF911F910F91FF90EF90DF90CF90D3
:10112000BF90AF9008958F929F92AF92BF92CF924F
:10113000DF92EF92FF920F931F93CF93DF936D3067
:1011400089F0C0905501D09056016A30D1F41092C8
:1011500054011092530188E0C80ED11CD092560160
:10116000C092550181E090E0DF91CF911F910F91E6
:10117000FF90EF90DF90CF90BF90AF909F908F90B7
:1011800008950091530110915401E5E06E9FE00134
:101190001124C455DF4F5801F12CF5E0E12CFF1666
:1011A00029F0CE010196FE01E490EC01912C812CF6
:1011B000F0E8AF16B10458F4B601680D791D60343B
:1011C000710528F44E2D4170C5010E944108E69436
:1011D0008FEF881A980AE8E08E16910449F7F39485
:1011E000FFEFAF1ABF0A86E0F812D7CF0A5F1F4F92
:1011F0001093540100935301B5CFCF93C82F0E9491
:101200003908982F9C2381E09C1380E0CF910895AA
:1012100080E00C940004089590E080E00895FB01C4
:1012200001900020E9F73197AF01461B570BDC0115
:10123000ED91FC910280F381E02D09948F929F92B1
:10124000AF92BF92EF92FF920F931F93CF93DF93D2
:10125000CDB7DEB7A1970FB6F894DEBF0FBECDBFF6
:101260007C01FA01CB0119A2223008F42AE08E0198
:101270000F5D1F4F822E912CB12CA12CBF01A50117
:1012800094010E943812F901CA016A300CF5605DC0
:10129000D8016E938D01232B242B252B79F790E019
:1012A00080E0109721F0BD01C7010E940F09A196AF
:1012B0000FB6F894DEBF0FBECDBFDF91CF911F9167
:1012C0000F91FF90EF90BF90AF909F908F900895F7
:1012D000695CDECF1F920F920FB60F9211248F938D
:1012E0009F938091E1009091E100937F9093E100C2
:1012F00083FF0FC01092E90091E09093EB001092F1
:10130000EC0092E39093ED001092770198E09093B7
:10131000F00082FF22C093E09093E9009091F200E8
:10132000992319F09AE39093E8009091680199232A
:1013300041F090916801915090936801911101C022
:101340005D9A90917601992341F0909176019150A8
:1013500090937601911101C0289A84FF18C0809162
:10136000E2008E7E81608093E2008091E1008F7EBA
:101370008093E100809169018E7E80618093690194
:101380009F918F910F900FBE0F901F90189580FF27
:10139000F7CF8091E2008E7E80618093E2008091A1
:1013A000E1008E7E8093E100809169018E7E8160F4
:1013B000E5CF1F920F920FB60F921124CF92DF92BA
:1013C000EF92FF920F931F932F933F934F935F934F
:1013D0006F937F938F939F93AF93BF93EF93FF93FD
:1013E000CF93DF93CDB7DEB76C97DEBFCDBF109242
:1013F000E9008091E80083FF25C068E0CE014596B2
:101400000E94640582EF8093E8008D8987FF39C0D0
:101410009091E80090FFFCCF982F907609F034C1AE
:101420009E894F89588D2F89F88C911131C0803851
:1014300061F5809167018093F1001092F1008EEFC9
:101440008093E8006C960FB6F894DEBF0FBECDBF58
:10145000DF91CF91FF91EF91BF91AF919F918F91CC
:101460007F916F915F914F913F912F911F910F91BC
:10147000FF90EF90DF90CF900F900FBE0F901F90D6
:1014800018959EEF9093E800C7CF1092F100D5CF4A
:10149000913059F48111D3CF4130510581F68091BB
:1014A00067018D7F80936701CACF933049F4811122
:1014B000C6CF4130510519F6809167018260F2CFA5
:1014C000953041F48091E80080FFFCCF20682093A4
:1014D000E300B5CF963009F0A9C00B8D1C8D22E03A
:1014E0001092E9001092650110926401F2122EC070
:1014F00010926301109262010E9433051F8299E0ED
:101500009983FA8291E09E8390EA98879AEF99876F
:101510002091640130916501275F3F4F3C832B830D
:101520008D831092E900109265011092640110936E
:1015300063010093620149E050E0BE016F5F7F4F9D
:1015400080E00E940D050E94330579CF109363015E
:10155000009362010E944A04DC0112960D911C91D5
:101560000115110509F451C1D801ED91FC910480D8
:10157000F581E02DBE016B5E7F4FC8010995009794
:1015800009F03EC1F80100851185EACFF3E0FF12B2
:101590000EC08F89882309F440C0823061F440E88E
:1015A00067E081EA97E00E94550C811148CF81E203
:1015B0008093EB0047CF813029F440E86BE085E968
:1015C00097E0F1CF833099F70E944A04DC0112962C
:1015D000ED90FC908E010F5F1F4F6801E114F10444
:1015E00079F0D701ED91FC910680F781E02DB801EB
:1015F000C7010995080F111DF701E084F184EECFB2
:10160000D8011C92F60101900020E9F73197BF0143
:101610006C197D0940E0C601C6CF6FE777E0FB019A
:10162000449150E080E80E940D0509CF973009F4FD
:10163000BECF983021F481E08093F10000CF993043
:1016400009F0FDCE837009F0B2CFE4E2F1E081E071
:1016500031E096E32191222371F08093E9003093E9
:10166000EB00DF0111972C912093EC009093ED009B
:101670008F5F873079F78EE78093EA001092EA0057
:101680008F8980937701DBCE8B8D9C8D1092E90042
:10169000109265011092640190936301809362013E
:1016A000898D811192C08E899D89913A49F4813248
:1016B00009F07DCF47E050E067E171E080E0B3CF13
:1016C000913209F074CF833269F48F89988DB0E03C
:1016D000A0E08093130190931401A0931501B0939F
:1016E0001601ADCE803269F48091E80082FFFCCF14
:1016F00067E087E191E00E9464058BEF8093E8004A
:101700009ECE823209F09BCE8F8980931E01EEEF30
:10171000FFE7859194918B3F9C4D51F1E0E0F8E01B
:101720008091170190911801A0911901B0911A01AF
:10173000803B9440A105B105F1F480911E0180FD2C
:101740001AC0EE3F8AE0F80789F587E797E79183AB
:101750008083809160008093660188E19BE00FB6F2
:10176000F894A895809360000FBE9093600067CEB8
:10177000EEEFFAE0D5CF808191818737974709F066
:101780005ECEA89580916000886180936000809112
:10179000660180936000EE3F2AE0F20789F08091B5
:1017A000FE0A9091FF0A9183808349CE80819181C6
:1017B0008737980751F29093FF0A8093FE0AC5CFAE
:1017C0001092FF0A1092FE0A3ACE0E944A04DC01EF
:1017D00012960D911C910115110509F4E8CED8015E
:1017E000ED91FC910190F081E02DBE016B5E7F4F89
:1017F000C8010995811123CEF80100851185EBCF31
:10180000181619060CF41BCED2CEF1E0FF12BECE94
:1018100063E877E004CF0F920FB68F939F93EF9317
:10182000FF93809159018D5F8D3708F08D5780931C
:101830005901EAE5F1E080818E4F808391819F4FCD
:10184000918382818F4F828383818F4F8383EEE5E3
:10185000F1E080818F5F808381818F4F81838281DE
:101860008F4F828383818F4F83838FB18F6066997F
:101870001C9B88278F3681F480915801981B9630E5
:1018800068F0E0E0F8E087E78083818388E1809377
:101890006000F0936000FFCF90935801FF91EF91AB
:1018A0009F918F910FBE0F901895EF92FF920F931B
:1018B0001F93CF93DF93F82E192FE62E042F81E08C
:1018C000860F880F0E94DF0483E00E94DF04CF2D83
:1018D000D12FEC0EFD2EF11CCE15DF05B9F007FF60
:1018E00013C0FE0184910E94DF04182F80E00E9443
:1018F000DF04812321968111EFCFDF91CF911F91DA
:101900000F91FF90EF9008958881EDCF81E0F5CFA2
:10191000E8E7F5E01382128288EE93E0A0E0B0E001
:1019200084839583A683B7838EE291E0918380833D
:101930008FEF9FEF95878487A9EDB7E013961C92F0
:101940001E92129780E491E011969C938E93ECEC9A
:10195000F7E0B183A08383E082838CE183831482E8
:10196000B683A5838AEE8783808713861486B09317
:10197000C905A093C8051092C8071092C90782E054
:101980008093CA0784E08093CB070895CDB7DEB774
:101990002697DEBFCDBF789483E084BD83E085BD0C
:1019A00081E080936E00E1E8F0E083E08083E0E88E
:1019B00081E08083E1E983E08083E0E981E0808366
:1019C000E1EC87E08083E3EC81E08083E0EC82E07F
:1019D0008083E2EC81E08083EAE787E080838068AF
:1019E00080831092770110926701109269018091B3
:1019F000D70081608093D70080EA8093D80089B5B2
:101A0000806189BD89B5826089BD09B400FEFDCFC2
:101A100081E090E00E9471058091D8008F7C806108
:101A20008093D8008091E000807F8093E0008091D7
:101A3000E1008E7E8093E1008DE08093E200559A74
:101A4000209A81EC80937C0081EF85B987EE84B980
:101A500084E38BB984EF8AB9769A6E9880EF81BB64
:101A600010BA80E58CBD81E08DBD85E00E9436080E
:101A70005F9A85E00E9436085C98ECE5F6E0859177
:101A80008EBD00000DB407FEFDCFE936C1F75C9AAC
:101A900081E88093640081E0809365000E940809DA
:101AA00080E80E94FD088823A9F05C9885EA8EBD35
:101AB00000000DB407FEFDCF5C9A2E982F982D984C
:101AC0008091640080628093640081E083BF889588
:101AD00013BEFCCF84E00E94FD088823B9F12D9845
:101AE00084E80E94FD088823A1F02D9A88EC0E94CA
:101AF00036082F986FEF82E090E00E94F41184EF97
:101B000091E00E9471052F9A84E80E94FD088111DE
:101B1000FBCF84E10E94FD088823A1F02D9A88EC78
:101B20000E9436082E9860E082E090E00E94F41156
:101B300084EF91E00E9471052E9A84E10E94FD08D5
:101B40008111FBCF88EC0E943608C4CF2D9A82E029
:101B500090E00E94EC11882309F4B1C03E9A3F9AAC
:101B600081E090E00E94EC11082F0470F02E81FFBC
:101B70000EC001112E9851EF852E99249A9480E47D
:101B80000E94FD08882309F49DC02E9A2F9A82E3B3
:101B90000E9436080E9439088111F9CF80E18093B4
:101BA0000001809164008E7F8093640080917A00B0
:101BB000806480937A0080917A0086FDFCCF00914A
:101BC0007800109179000E940806AB01BC01C801A1
:101BD000B0E0A0E0DC01992788278C019D01040F6B
:101BE000151F261F371FC901B8012091640021600D
:101BF00020936400611571058105910511F00E9423
:101C0000E31106EC17E028EC35E03E832D83E6E097
:101C10008E2E912CA12CB12CF5E0CF2ED12CE12CC5
:101C2000F12C0E9494112B013C010E9494116983B4
:101C30007A838B839C83C301B201A50194010E9426
:101C40000612ED81FE81628369817A818B819C819C
:101C5000A70196010E9406126B5C7F4F8F4F9F4F2A
:101C6000ED81FE8163833296FE83ED830E171F079D
:101C7000C1F658E0252E312C66E0462E512C612C01
:101C8000712C75E0872E912CA12CB12C1FEF909117
:101C90005A0180915101F92FF81B8F2F00915001AB
:101CA0000983002309F4B0C0F0935201109250014F
:101CB00080E090E0892B59F30E940000E7CF3E9826
:101CC0003F984ECFFF2031F014E08116910411F4BB
:101CD0002E9A2F9881E00E940004282D2770B22EA2
:101CE000940103E0359527950A95E1F7C90196958A
:101CF000982F88279795879588589E4F70E060E0C9
:101D00002E3F4FEF340751F1DC01AC56BF4F8C0131
:101D100050E040E0FB01E455FA4F6F01F601E40F9B
:101D2000F51FE491F0E03F010B2C02C0660C771C1C
:101D30000A94E2F72F3F320721F0F801E488E62801
:101D4000E48ABB2019F0EC91E729EC934F5F5F4FD9
:101D500011960F5F1F4F4835510501F72F5F3F4F19
:101D600080589F4F685A7F4F603B710549F60E942B
:101D700008098FE00E943608FFEF8F1A9F0A09E1D9
:101D80008016910409F0FBCEFF2011F02F9A2D98B8
:101D900080E991E00E9471052D9A81E090E00E9417
:101DA000EC1180FFF4CE8AE090E00E94EC119FEFEE
:101DB000980F9E3F08F0EBCE22E330E030935401C1
:101DC0002093530128E330E03093560120935501CE
:101DD0000AE010E01A830983682F89ED97E00E94DA
:101DE000930809811A810F5F1F4F1A830983C80165
:101DF0000E94EC110031110579F70E94080988EE64
:101E000093E00E947105C3CE20910001F21748F4BF
:101E10008F5F821708F04CCF81E083BF889513BE97
:101E200047CF21E02093500190935101EEE4F1E07F
:101E3000808191810196808391830E9439088093EB
:101E40005701E8E7F1E0398131113FEF8FEF31932E
:101E50003193319331938150D0F710925601109203
:101E60005501109254011092530180E20E94FD0826
:101E7000882321F086E08093CB070EC084E00E9487
:101E8000FD088111F7CF80E40E94FD08882309F442
:101E900084C041E04093CB078091CA078150809372
:101EA000CA07811124C084EC97E0E8ECF5E02481B6
:101EB00022832581238332968E179F07C1F70E94C4
:101EC0009411A30192010E9406126093C6070E941A
:101ED0009411A50194010E9406126B5C7F4F8F4FF5
:101EE0009F4F6093C7078091CB078093CA0780916B
:101EF000C9078F5F8093C90780E80E94FD08882387
:101F000009F44DC08091CF0781508093CF0788E0BE
:101F10000E94FD088823A1F08091D707811110C08D
:101F20008091CE078B5F8093D3078091CF078D5F21
:101F30008093D40781E08093D70782E08093D6070F
:101F40008091D7078823C9F08091D3079091D60755
:101F50009130C9F174F582509923D1F18091D30762
:101F6000893720F48091D407843438F01092D70751
:101F70008AEE8093D3078093D407E8E7F1E091E8F5
:101F8000915049F5E8EFF4E091E8915051F18191D9
:101F9000DF01119780688C93F8CF82E06CCF80E1ED
:101FA0000E94FD08882309F4B2CF8091CF078F5F8C
:101FB000ACCF923061F08091D4078250933071F6AB
:101FC0008093D407CBCF8091D4078E5FF9CF8E5FFB
:101FD0008093D307C3CF8191DF01119781608C93E8
:101FE000CFCFA8ECB5E030E020E012969C9112979C
:101FF00013968C911397890FE92FE695E695E69550
:102000000FEF0E0F97700F3FC1F0F12C602F002ED5
:10201000000C770BEF2DF0E06E177F0774F0F6954C
:10202000FE2FEE27F795E795E20FF31FAF01485813
:102030005E4FFA011083F394EDCF9923C1F0E02FA6
:10204000000FFF0B3196F695FE2FEE27F795E795DB
:10205000E20FF31FE858FE4FA101491B51096FEF32
:1020600070E002C0759567954A95E2F76083782F16
:102070007695769576957D8387708983872F90E016
:10208000BC017695762F662777956795620F731F4B
:1020900050E040E0ED81E40FE83070F4FA01F6958D
:1020A000FE2FEE27F795E795E60FF71FE858FE4F4E
:1020B00010834F5F5F4FEECFE981EE23B9F0A101AE
:1020C0004E1B51096FEF70E002C0759567954A95F8
:1020D000E2F7AB01FC01F695FE2FEE27F795E795A9
:1020E000E20FF31FE858FE4F409540832F5F3F4FAC
:1020F00012962F37310509F078CF8AE590E090935A
:102100005401809353011092560110925501809111
:10211000C8059091C9059A8389834091C90750E009
:1021200070E060E02AE00E941E0968E471E08981A5
:102130009A810E940F092091D0076091CF07062E47
:10214000000C770B8091CE07082E000C990BE9E765
:10215000F6E00491EAE7F6E0E4904BE756E022234C
:10216000F1F041E050E03E2D377011F450E040E0D6
:102170003E2D369536953695430F511D049FD0015F
:10218000059FB00D112430E0220F331FA29FA00144
:10219000A39F500DB29F500D11244558594F23E075
:1021A000C22E30E020E00E944D069091D50780912C
:1021B000D3076091D407062E000C770B23E041E093
:1021C000911102C021E043E0082E000C990B0E94FF
:1021D0005708E1E0F1E0FA83E983E981FA8182813D
:1021E0008823A1F0E9E6F6E00491EAE6F6E0E4905F
:1021F000E981FA81618170E0808193E0C92E30E04D
:1022000020E04BE656E090E00E944D0629813A819D
:102210002D5F3F4F3A83298343E151E04217530733
:10222000E1F6EBE8F6E00491ECE8F6E0E49082E019
:10223000C82E30E020E04DE856E070E060E08AE62D
:1022400090E00E944D06109254011092530110929A
:102250005601109255018091520154E6859FC001AC
:1022600011246091000170E00E946912AB01770FA8
:10227000660B770B2AE089ED97E00E941E096BE45C
:1022800071E089ED97E00E940F090E94080910CDC6
:102290008F929F92AF92BF92CF92DF92EF92FF9276
:1022A000CF93DF93EC01688179818A819B816115ED
:1022B00071058105910521F464E279ED8BE597E0E4
:1022C0002DE133EF41E050E00E94061249015A012E
:1022D0009B01AC01A7EAB1E40E9425126B017C01CD
:1022E000ACEEB4EFA50194010E943312C60ED71EC6
:1022F000E81EF91EF7FE06C081E0C81AD108E10801
:1023000080E8F80AC882D982EA82FB82C701B60156
:102310009F77DF91CF91FF90EF90DF90CF90BF90AC
:10232000AF909F908F9008958F929F92AF92BF929F
:10233000CF92DF92EF92FF9260911F017091200186
:10234000809121019091220161157105810591050E
:1023500021F464E279ED8BE597E02DE133EF41E084
:1023600050E00E94061249015A019B01AC01A7EA04
:10237000B1E40E9425126B017C01ACEEB4EFA50123
:1023800094010E943312C60ED71EE81EF91EF7FEF6
:1023900006C081E0C81AD108E10880E8F80AC092B6
:1023A0001F01D0922001E0922101F0922201C70189
:1023B000B6019F77FF90EF90DF90CF90BF90AF90E6
:1023C0009F908F90089560931F01709320018093D8
:1023D0002101909322010895F999FECF92BD81BD0C
:1023E000F89A992780B50895262FF999FECF92BDC6
:1023F00081BDF89A019700B4021639F01FBA20BDCA
:102400000FB6F894FA9AF99A0FBE0895052E97FB25
:102410001EF400940E941D1257FD07D00E9438122E
:1024200007FC03D04EF40C941D1250954095309546
:1024300021953F4F4F4F5F4F089590958095709530
:1024400061957F4F8F4F9F4F08950E945A12A59F0D
:10245000900DB49F900DA49F800D911D112408959F
:10246000B7FF0C9425120E942512821B930B08952E
:10247000A1E21A2EAA1BBB1BFD010DC0AA1FBB1F88
:10248000EE1FFF1FA217B307E407F50720F0A21BFA
:10249000B30BE40BF50B661F771F881F991F1A9467
:1024A00069F760957095809590959B01AC01BD0191
:1024B000CF010895A29FB001B39FC001A39F700DEB
:1024C000811D1124911DB29F700D811D1124911D3C
:1024D000089597FB072E16F4009407D077FD09D0D6
:1024E0000E947D1207FC05D03EF4909581959F4F88
:1024F0000895709561957F4F0895AA1BBB1B51E10C
:1025000007C0AA1FBB1FA617B70710F0A61BB70B63
:10251000881F991F5A95A9F780959095BC01CD0108
:102520000895EE0FFF1F0590F491E02D0994F894A3
:02253000FFCFDB
:1025320010402001402001402001402001402001A4
:10254200402001FFFFFFFF00E1000000000000014A
:1025520000000000C18081000000000000005E0455
:1025620085057F047404C5048304A10400000000EF
:0E257200930820060C090B090D0A0025000035
:00000001FF
